:020000040800F2
:10000000000400205B1B00080D0400080F0400081A
:1000100013040008170400081B0400080000000077
:100020000000000000000000000000001F040008A5
:100030002104000800000000230400082504000833
:10004000DD0300087B1B00087B1B00087B1B0008EE
:100050007B1B00087B1B00087B1B00087B1B000828
:100060007B1B00087B1B00087B1B00087B1B000818
:100070007B1B00087B1B00087B1B00087B1B000808
:100080007B1B00087B1B00087B1B00087B1B0008F8
:100090007B1B00087B1B00087B1B00087B1B0008E8
:1000A0007B1B00087B1B00087B1B00087B1B0008D8
:1000B0007B1B00087B1B00087B1B00087B1B0008C8
:1000C0007B1B00087B1B00087B1B00087B1B0008B8
:1000D0007B1B0008251E00087B1B00087B1B0008FB
:1000E0007B1B00087B1B00087B1B00087B1B000898
:1000F0007B1B00087B1B00087B1B00087B1B000888
:100100007B1B00087B1B00087B1B00087B1B000877
:100110007B1B00087B1B00087B1B00087B1B000867
:100120007B1B00087B1B00087B1B00087B1B000857
:1001300000F002F800F03CF80AA090E8000C8244BD
:100140008344AAF10107DA4501D100F031F8AFF29A
:10015000090EBAE80F0013F0010F18BFFB1A43F0A5
:10016000010318472C5100004C510000103A24BFE5
:1001700078C878C1FAD8520724BF30C830C144BF0C
:1001800004680C607047000000230024002500264E
:10019000103A28BF78C1FBD8520728BF30C148BFEA
:1001A0000B6070471FB504F0C2FE1FBD10B510BD37
:1001B00003F094FA1146FFF7F5FF00F05FF803F043
:1001C000B2FA03B4FFF7F2FF03BC03F0B9FA000080
:1001D00070B50446B4F90000002805DAB4F900004F
:1001E000C0F5004000B220802088C0F307252846D3
:1001F00001F0A6FD2088C5B2284601F0A1FD70BD22
:1002000008B525208DF8000001208DF80100072099
:100210008DF8020001208DF80300684601F089FA8C
:1002200008BD08B501213C2000F065FA4FF40070CC
:10023000ADF8000018208DF8030003208DF80200AF
:1002400069466A4801F04CFB4FF48060ADF800004D
:1002500004208DF803006946644801F041FB41F633
:10026000FF70ADF8000010208DF8030003208DF81A
:10027000020069465E4801F033FB08BD0EB5002060
:1002800002900024002501F0F4FC482001F064FEF7
:10029000FFF7C7FF4FF4E13001F016FD02F07DFAE1
:1002A000FFF7AEFF0A2001F06DFE02F03CF80A20D5
:1002B00001F068FE0A2001F065FE02F07FF802F00E
:1002C000DAF84C49086002F0E7F800204A49087063
:1002D000029002F0E9FF6CE0BDF80800401C00B29B
:1002E0000290681CC5B201F087FE01F07BFF02F0AE
:1002F00001FB022D06D102F05BFF02F0A6FF02F027
:10030000E5FF002502F0B7F83A490968401A44F6BB
:10031000206188424DD9FF2001F012FDAA2001F092
:100320000FFD36498868364904F03AFD064604F068
:10033000BBFC00B2ADF8000030490868304904F059
:100340002FFD064604F0B0FC00B2ADF802002B49C8
:1003500048682B4904F024FD064604F0A5FC00B2D1
:10036000ADF804006846FFF733FF0DF10200FFF718
:100370002FFF01A8FFF72CFFBDF8080032214843EA
:1003800000B2029002A8FFF723FF00200290052C84
:1003900003DA02201B49086002E002201A490860C3
:1003A000601C04B2322C00DB002402F064F8114916
:1003B000086091E710B50121C80200F0A9F94FF4D7
:1003C000C07001F078F9412001F080F9502001F06F
:1003D00093F901F09AF901F086F910BD10B550209B
:1003E00001F085F901F091F910BD0000000801400D
:1003F000000C014008000020050000207C020020C5
:1004000000002041100C0140140C0140704700BF57
:10041000FEE700BFFEE700BFFEE700BFFEE7704754
:100420007047704770470000DB48006840F00100EB
:10043000D949086008464068D8490840D64948600C
:1004400008460068D6490840D34908600846006855
:1004500020F4802008600846406820F4FE004860D0
:100460004FF41F0088607047CB49096821F4803140
:10047000C94A11601146096821F480211160B0F564
:10048000803F03D0B0F5802F0ED106E0C249096845
:1004900041F48031C04A116007E0BF49096841F466
:1004A000A021BD4A116000E000BF00BF704710B539
:1004B00001460022002300204A11012A02D1B64C35
:1004C000236806E0022A02D1B34C236A01E0B24C51
:1004D000636A01F01F02012494401C4201D00120F4
:1004E00000E0002010BD70B500240025002600BFEC
:1004F0003120FFF7DCFF0646641CB4F5A06F01D085
:10050000002EF5D03120FFF7D2FF08B1012500E021
:100510000025284670BD014600209F4A106820F043
:10052000F80040EAC100106070479E4908607047BB
:1005300002460020984B586820F47C1042EA0103E0
:100540001843954B586070479649086670470146B6
:100550000020914A506820F0030008435060704723
:100560008D48406800F00C007047014600208A4A20
:10057000506820F0F00008435060704701460020AA
:10058000854A506820F4E060084350607047014697
:100590000020814A506820F4605040EAC100506059
:1005A000704729B17C4A527A02437B4B5A7206E06B
:1005B000794A527AC343DBB21A40774B5A7270477A
:1005C00079490860704701460020734A506820F45A
:1005D00040400843506070470021744A11706E4AD1
:1005E00082F82010012802D0042808D103E001215C
:1005F0006E4A117004E005216C4A117000E000BFE2
:1006000000BF70476A49086070476349096A01433F
:10061000614A1162704767490860704730B5002130
:100620000022002400235C4D6D6805F00C0121B10F
:10063000042905D0082923D105E05F4D056022E09B
:100640005D4D05601FE0544D6D6805F47012524D0C
:100650006D6805F48034022505EB92421CB9574DB4
:10066000554305600BE04C4D6D6815F4003F03D019
:10067000524D5543056002E04F4D5543056002E081
:100680004D4D056000BF00BF434D6D6805F0F001A2
:1006900009094B4D6B5C0568DD4045603E4D6D685A
:1006A00005F4E061090A464D6B5C4568DD408560F4
:1006B000394D6D6805F46051C90A414D6B5C456860
:1006C000DD40C560344D6D6805F44041890B3D4DFA
:1006D0006B5CC568B5FBF3F5056130BD29B12E4AE9
:1006E000526902432C4B5A6104E02B4A52698243FF
:1006F000294B5A61704729B1274A92690243264B18
:100700009A6104E0244A92698243234B9A617047BC
:1007100029B1214AD26902431F4BDA6104E01E4A23
:10072000D26982431C4BDA61704729B11A4AD268F8
:100730000243194BDA6004E0174AD2688243164B31
:10074000DA60704729B1144A12690243124B1A61E8
:1007500004E0114A126982430F4B1A6170471A492B
:10076000086070470F49C86470470B49C8717047EB
:100770000948406A40F08070074948627047014666
:100780000020054A92680A4201D0012000E00020C2
:100790007047014988727047001002400000FFF85E
:1007A000FFFFF6FE00004242D80042422010024005
:1007B000800442423C04424200127A0000093D009B
:1007C0000E0000201E0000204004424210B50446E6
:1007D000FB48844208D10121C014FFF7A6FF002185
:1007E000E014FFF7A2FF52E0B4F1804F08D10121DD
:1007F0000846FFF7A7FF00210120FFF7A3FF46E00F
:10080000F048844208D101210220FFF79BFF00211C
:100810000220FFF797FF3AE0EB48844208D101211C
:100820000420FFF78FFF00210420FFF78BFF2EE04D
:10083000E648844208D101210820FFF783FF002108
:100840000820FFF77FFF22E0E148844208D1012120
:100850001020FFF777FF00211020FFF773FF16E04D
:10086000DC48844208D101212020FFF76BFF0021E2
:100870002020FFF767FF0AE0D748844207D1012113
:100880004014FFF752FF00216014FFF74EFF10BD28
:10089000028802F08F020280CA884B881A430388BC
:1008A0001A4302808A8882850A880285C44A904257
:1008B00002D0C94A904201D10A7A0286012282827C
:1008C000704770B5002400220023058C4FF6FE7699
:1008D00035400584028C8388048B4FF68C752C4040
:1008E0000D882C43751E2A400D892A434D882A43C2
:1008F000B34DA84202D0B84DA84213D14FF6F775B8
:100900002A404D892A434FF6FB752A408D882A4399
:1009100047F6FF652B4047F6FF552B408D892B434B
:10092000CD892B4383800483CD888586028470BD66
:1009300070B5002400220023058C4FF6EF76354079
:100940000584028C8388048B48F6FF452C400D8873
:100950002D0644EA15444FF6DF752A400D892D0512
:1009600042EA15424D882D0542EA1542944DA842AF
:1009700002D0994DA8421BD14FF67F752A404D8970
:100980002D0542EA15424FF6BF752A408D882D0588
:1009900042EA154247F6FF352B4047F2FF752B40E0
:1009A0008D89AD0443EA1543CD89AD0443EA15436F
:1009B00083800483CD880587028470BD70B50024D0
:1009C00000220023058C4FF6FF6635400584028C1B
:1009D0008388848B4FF68C752C400D882C434FF602
:1009E000FF552A400D892D0642EA15424D882D06F5
:1009F00042EA1542724DA84202D0774DA8421BD15F
:100A00004FF2FF752A404D892D0642EA15424FF6F6
:100A1000FF352A408D882D0642EA154246F6FF75BD
:100A20002B4045F6FF752B408D892D0543EA154374
:100A3000CD892D0543EA154383808483CD8885873E
:100A4000028470BD70B5002300220024058C4EF690
:100A5000FF7635400584028C8488838B48F6FF45F9
:100A60002B400D882D0643EA15434DF6FF752A40AD
:100A70000D892D0742EA15424D882D0742EA15429D
:100A80004F4DA84202D0544DA84205D1C4F30D04E5
:100A90008D89AD0544EA154484808383CD88A0F810
:100AA0004050028470BD828B4FF2FF331A40828324
:100AB000828B0B0642EA134282837047F0B50C46E4
:100AC0001546002100220026078C4EF6FF7C07EA1F
:100AD0000C070784818B028C27073E0C40F6FF47EA
:100AE00039402F0641EA17411F0741EA17414DF6E9
:100AF000FF773A4046F480573A4381830284F0BD41
:100B0000828B4FF6F3731A408283828B0A4382836F
:100B10007047F0B50C461546002100220026078CD0
:100B20004FF6FF6C07EA0C070784818B028C2706BF
:100B30003E0C4FF60C7739401F0545EA17473943FD
:100B40004FF6FF573A4046F480773A438183028458
:100B5000F0BD028B4FF2FF331A400283028B0B066B
:100B600042EA134202837047F0B50C461546002155
:100B700000220026078C4FF6EF7C07EA0C0707845B
:100B8000018B028C27053E0C40F6FF4739401F07BA
:100B900041EA17412F0641EA17414FF6DF773A4005
:100BA00046F010073A4301830284F0BD028B4FF6F2
:100BB000F3731A400283028B0A43028370470000DA
:100BC000002C01400004004000080040000C0040E0
:100BD000001000400014004000340140F0B50C4605
:100BE000154600210022068C4FF6FE773E40068413
:100BF000018B028C4FF60C7631401E0545EA1646F5
:100C000031437E1E324044F00106324301830284A8
:100C1000F0BD70B505460C46208850B92389A288DE
:100C200061882846FFF7DAFFE1882846FFF7BEFF14
:100C300025E0208804280AD12389A28861882846D3
:100C4000FFF792FFE1882846FFF783FF17E020882F
:100C500008280AD12389A28861882846FFF759FF0E
:100C6000E1882846FFF74CFF09E02389A2886188C4
:100C70002846FFF723FFE1882846FFF714FF70BDE1
:100C80002DE9F04105460C4600260127608808B989
:100C9000022600E00026A088012801D1022700E0FA
:100CA00001272088A0B92389A28861882846FFF7F8
:100CB00095FFE1882846FFF779FF23893A463146B8
:100CC0002846FFF751FFE1882846FFF742FF13E06F
:100CD0002389A28861882846FFF746FFE1882846D5
:100CE000FFF737FF23893A4631462846FFF776FF5C
:100CF000E1882846FFF75AFFBDE8F0810A884B8853
:100D00001A438B881A43CB881A430B891A434B89A1
:100D10001A438B891A43A0F8442070474FF6FF719D
:100D2000818000210180C1804180017270470021D3
:100D3000018041808180C180018141818181C181A7
:100D40007047002101804180012181800021C18004
:100D5000018170470021018041808180C180018133
:100D600041818181704721B1028842F001020280F5
:100D700004E0028840F2FE331A400280704731B12D
:100D8000B0F8442042F40042A0F8442005E0B0F856
:100D90004420C2F30E02A0F84420704710B51AB1E7
:100DA00083890B43838104E08389CC43A4B223402D
:100DB000838110BD8182704741EA0203A0F8483068
:100DC000704710B51AB183890B43838104E083898E
:100DD000CC43A4B22340838110BD01894FF6F87241
:100DE0001140018170470A46002101894FF68F7337
:100DF000194011430181704730B504460D4629461C
:100E00002046FFF7F0FF208940F00700208130BD29
:100E10002DE9F04104460D4616461F46602D06D1C9
:100E20003B46012231462046FFF79EFE05E03B4649
:100E3000012231462046FFF7D1FE29462046FFF722
:100E4000D2FF208940F007002081BDE8F08130B555
:100E50000C4600210189C9B21D0642EA1545254309
:100E60002943018130BD2DE9F04105460E46174664
:100E70009846002443463A4631462846FFF7E7FFA6
:100E80002C894FF6F8710C4044F007044FF68F712F
:100E90000C4044F070042C81BDE8F081F0B50446AC
:100EA0000D4616461F463B46324629462046FFF76A
:100EB000CEFF208940F480402081F0BD01858282F0
:100EC00070470A460021018840F28F3319401143D0
:100ED00001807047F0B50C4615461E4600210022E1
:100EE00000230189028B038C4FF6F87739402143A8
:100EF0004FF6FC473A4040F201173A434FF6DD7790
:100F00003B40370545EA17473B4301810283038491
:100F1000F0BD0A460021018B4FF68F731940114333
:100F2000018370470A460021018B48F6FF73194080
:100F3000130641EA1341018370470A460021818B61
:100F40004FF68F7319401143818370470A46002181
:100F5000818B48F6FF731940130641EA13418183E0
:100F6000704721B1028842F08002028004E00288CA
:100F700040F27F331A400280704721B1828842F0EC
:100F80000402828004E082884FF6FB731A4082805C
:100F9000704721B1828842F00802828004E0828892
:100FA0004FF6F7731A408280704721B1828842F071
:100FB0000102828004E082884FF6FE731A4082802C
:100FC00070470A460021018B4FF6F7731940114311
:100FD000018370470A460021018B4FF2FF731940CD
:100FE000130641EA1341018370470A460021818BB1
:100FF0004FF6F77319401143818370470A46002169
:10100000818B4FF2FF731940130641EA134181832C
:1010100070470A460021018B4FF6FB7319401143BC
:10102000018370470A460021018B4FF6FF331940B8
:10103000130641EA1341018370470A460021818B60
:101040004FF6FB7319401143818370470A46002114
:10105000818B4FF6FF331940130641EA1341818318
:1010600070470A460021018B4FF67F7319401143E8
:10107000018370470A460021018BC1F30E0113065C
:1010800041EA1341018370470A460021818B4FF6E4
:101090007F7319401143818370470A460021818B79
:1010A000C1F30E01130641EA1341818370470A46DA
:1010B0000021018C4FF6FD731940114301847047E4
:1010C0000A460021018C4FF6F77319401143018441
:1010D00070470A460021018C4FF6DF731940130553
:1010E00041EA1341018470470A460021018C4FF602
:1010F0007F731940130541EA1341018470470A4682
:101100000021018C4FF6FF531940130641EA1341A9
:10111000018470470A460021018C4FF2FF73194089
:10112000130641EA1341018470470A460021018CED
:101130004DF6FF731940130741EA134101847047CC
:1011400030B5002301248C40A3B2048CDD43ADB242
:101150002C400484048C02FA01F5ADB22C430484C3
:1011600030BD30B5002304248C40A3B2048CDD4391
:10117000ADB22C400484048C02FA01F5ADB22C43CC
:10118000048430BD70B50346002000241846183092
:1011900001258D40ACB21D8CE643B6B235401D84AE
:1011A00009B108290AD100EB610005684FF68F7676
:1011B000354005600568154305600DE00D1FADB2B3
:1011C00000EB6500056848F6FF7635400560056868
:1011D000160645EA1645056070BD21B1028842F049
:1011E0000202028004E0028840F2FD331A400280CD
:1011F000704721B1028842F00402028004E00288B4
:1012000040F2FB331A400280704721B1828842F0DD
:101210008002828004E082884FF67F731A408280C9
:101220007047028840F2F7331A40028002880A436E
:101230000280704782884FF68F731A4082808288BE
:101240000A438280704702894FF6F8731A40028180
:1012500002890A430281704702894FF67F731A4060
:10126000028102890A430281704781847047818527
:101270007047818670470187704781877047A0F863
:10128000401070470288D2B2028002880A4302806E
:1012900070470146888E70470146088F70470146A7
:1012A000888F70470146B1F8400070470146888C2E
:1012B00070470146088D704702460020138A0B4292
:1012C00001D0012000E000207047CA43028270472D
:1012D00030B50246002000230024158A05EA0103E8
:1012E000958905EA010413B10CB1012000E000204A
:1012F00030BDCA430282704710B50446E3488442B9
:1013000009D101218803FFF710FA00214FF4804032
:10131000FFF70BFA32E0DE48844209D1012148048C
:10132000FFF710FA00214FF40030FFF70BFA25E029
:10133000D848844209D101218804FFF703FA00212B
:101340004FF48020FFF7FEF918E0D348844209D11A
:101350000121C804FFF7F6F900214FF40020FFF740
:10136000F1F90BE0CD48844208D101210805FFF7CF
:10137000E9F900214FF48010FFF7E4F910BD2DE9E1
:10138000F04786B005460E460024A24600BF00BFC7
:101390000027B08900B100BF2F462C8A4CF6FF70A1
:1013A0000440F08804432C82AC894EF6F3100440CC
:1013B000B08831890843718908430443AC81AC8A01
:1013C0004FF6FF400440B0890443AC8201A8FFF708
:1013D00025F9AE48874202D1DDF810A001E0DDF822
:1013E0000CA00AEBCA0000EB0A1031688900B0FBC0
:1013F000F1F86420B8FBF0F004012009642101FB3E
:101400001089322000EB0910B0FBF1F000F00F0062
:1014100004432C8106B0BDE8F0874FF416510160FB
:1014200000218180C18001810C21418100218181C5
:10143000704710B502460020108A4FF2FF03184093
:101440000B884C8823438C882343CC882343184340
:10145000108210BD0021018041808180C1807047D1
:1014600021B1828942F40052828104E082894DF6E2
:10147000FF731A4082817047F0B5034600240026AE
:1014800000250020A1F510676A3F00D100BF184673
:10149000C1F3421401F01F06012707FA06F5012CDB
:1014A00001D10C3004E0022C01D1103000E01430E6
:1014B0001AB107682F43076002E00768AF4307606F
:1014C000F0BD10B51AB1838A0B43838204E0838A8E
:1014D000CC43A4B22340838210BD028A4FF6F0733E
:1014E0001A400282028A0A430282704782894FF2BE
:1014F000FF731A40828182890A438281704721B139
:10150000828942F00202828104E082894FF6FD73F3
:101510001A4082817047028A4FF6DF731A400282B6
:10152000028A0A430282704721B1028A42F4804251
:10153000028204E0028A4BF6FF731A40028270476F
:10154000C1F308028280704701468888C0F3080012
:101550007047818941F0010181817047028BD2B2CD
:101560000283028B42EA012202837047028B02F45B
:101570007F420283028B0A430283704721B1828A31
:1015800042F02002828204E0828A4FF6DF731A4022
:101590008282704721B1828A42F01002828204E086
:1015A000828A4FF6EF731A408282704721B1828A95
:1015B00042F00802828204E0828A4FF6F7731A40F2
:1015C00082827047828A4FF6FB731A408282828A37
:1015D0000A438282704721B1828A42F002028282EB
:1015E00004E0828A4FF6FD731A40828270470246F9
:1015F0000020B1F5007F00D100BF13880B4201D05D
:10160000012000E00020704701F40072B2F5007F75
:1016100000D100BFCA430280704770B50246002463
:10162000002300250020A1F510666A3E00D100BF0E
:10163000C1F3421501F01F03012606FA03F3012D41
:1016400002D19689334006E0022D02D1168A33403A
:1016500001E0968A33400C12012606FA04F416883B
:10166000344013B10CB1012000E0002070BD10B572
:1016700000220023A1F510646A3C00D100BF0A12C9
:1016800001249440A3B2DC43048010BD0038014023
:101690000044004000480040004C00400050004022
:1016A00010B50121C802FFF74DF800214FF400608A
:1016B000FFF748F810BD0021164A126822F4C071E5
:1016C00041EA0001144AC2F8041C70470021114A83
:1016D000126822F07F0100F07F0242EA01010E4A07
:1016E000C2F8041C704701200C490860704700F0E4
:1016F0007F010B4A1160704740F08001084A116079
:10170000704708480068C0B270470020054908606B
:1017100070470000042C004000200040A4800542D7
:10172000002C0040082C004036490143364A116025
:10173000704770B5002100230F22C4784CB3324C9F
:10174000246804F4E064C4F5E0644FEA1421C1F1B4
:10175000040322FA01F2447804FA03F1847804EADB
:10176000020444EA01014FEA0111284C0678A15510
:10177000047804F01F054FF0010404FA05F405781D
:101780004FEA65154FF0E02606EB8505C5F80041E8
:1017900009E0047804F01F050124AC401C4D0678D4
:1017A000761145F8264070BD1A4A0A4002431A4B8A
:1017B0001A60704741B1194A126842EA00024FF0BC
:1017C000E023C3F8102D07E0144A126822EA000251
:1017D0004FF0E023C3F8102D7047042808D14FF0D4
:1017E000E021096941F004014FF0E022116107E0B6
:1017F0004FF0E021096921F004014FF0E02211616E
:10180000704700000000FA050CED00E000E400E085
:1018100080E100E080FFFF1F08ED00E010ED00E038
:1018200010B50446C248844208D101210420FEF7C5
:101830007CFF00210420FEF778FF46E0BD4884428B
:1018400008D101210820FEF770FF00210820FEF7D3
:101850006CFF3AE0B848844208D101211020FEF71D
:1018600064FF00211020FEF760FF2EE0B3488442A1
:1018700008D101212020FEF758FF00212020FEF78B
:1018800054FF22E0AE48844208D101214020FEF7F7
:101890004CFF00214020FEF748FF16E0A948844293
:1018A00008D101218020FEF740FF00218020FEF7B3
:1018B0003CFF0AE0A448844207D101218015FEF7CD
:1018C00034FF0021A015FEF730FF10BD10B5012137
:1018D0000846FEF72AFF00210120FEF726FF10BD73
:1018E0002DE9F041024600250026002000230024B7
:1018F000002791F803C00CF00F0591F803C01CF00D
:10190000100F03D091F802C04CEA0505B1F800C0F1
:101910001CF0FF0F31D0146800202BE04FF0010CB9
:101920000CFA00F3B1F800C00CEA03069E4220D185
:1019300083004FF00F0C0CFA03F7BC4305FA03FCCD
:101940004CEA040491F803C0BCF1280F06D14FF013
:10195000010C0CFA00FCC2F814C00AE091F803C0B4
:10196000BCF1480F05D14FF0010C0CFA00FCC2F895
:1019700010C0401C0828D1D31460B1F800C0BCF1DD
:10198000FF0F34DD546800202EE000F1080C4FF00A
:10199000010808FA0CF3B1F800C00CEA03069E42F5
:1019A00021D183004FF00F0C0CFA03F7BC4305FA6A
:1019B00003FC4CEA040491F803C0BCF1280F05D1E4
:1019C00000F1080C08FA0CF8C2F8148091F803C072
:1019D000BCF1480F07D100F1080C4FF0010808FADC
:1019E0000CF8C2F81080401C0828CED35460BDE823
:1019F000F0814FF6FF710180022181700421C170D6
:101A000070470246002093680B4201D0012000E09D
:101A1000002070470146886880B270470246002067
:101A2000D3680B4201D0012000E00020704701463E
:101A3000C86880B2704701617047416170470AB160
:101A4000016100E041617047C16070474FF480322E
:101A50000A438261816182618269826970470246BC
:101A600000203A4B18684FF68073184040EA021085
:101A70000843364B186070473549C8617047F0B568
:101A80000A460023002400210025304E7168C0F36F
:101A9000034583B200F44016B6F5401F08D121F08B
:101AA00070612A4E766826F07066284F7E6012E0DC
:101AB00000F48016B6F5801F06D1032606FA05F459
:101AC000A14341F0706106E0460D360103FA06F6C7
:101AD000B14341F0706122B1460D360103FA06F6BA
:101AE00031431A4E7160F0BD30B500228B071C0FD8
:101AF0000F2303FA04F2154B08338C1053F82430EB
:101B00009343124C08348D1044F8253023468C1032
:101B100053F824308C07240F00FA04F423430B4CB1
:101B200008348D1044F8253030BD0A4908607047EC
:101B300000080140000C0140001001400014014069
:101B400000180140001C014000200140000001403D
:101B500000002042DC00204270470B4880470B49C0
:101B600081F308880A480047FEE7FEE7FEE7FEE744
:101B7000FEE7FEE7FEE7FEE7FEE7FEE7054806496B
:101B8000064A074B70470000591B0008180900203F
:101B90003101000818030020180900201805002052
:101BA0001805002000210020434A126842F48032C8
:101BB000414B1A6000BF404A126802F40030491CD1
:101BC00010B9B1F5A06FF6D13B4A126812F4003F8C
:101BD00001D0012000E00020012843D1374A1268DB
:101BE00042F01002354B1A601A46126822F00302C6
:101BF0001A601A46126842F002021A602E4A5268AF
:101C00002D4B5A601A4652685A601A46526842F47E
:101C100080625A601A46526822F47C125A601A4650
:101C2000526842F4E8125A601A46126842F0807212
:101C30001A6000BF204A126812F0007FFAD01E4AD4
:101C4000526822F003021C4B5A601A46526842F056
:101C500002025A6000BF184A526802F00C02082AB9
:101C6000F9D101E000BFFEE7704710B5FFF79AFF1A
:101C700010BD10B51048006840F001000E49086022
:101C8000084640680E4908400B494860084600680D
:101C90000C490840084908600846006820F4802084
:101CA00008600846406820F4FE0048604FF41F00BA
:101CB0008860FFF7DAFF10BD0010024000200240EC
:101CC0000000FFF8FFFFF6FE10B586B004460121C4
:101CD0004FF49040FEF70FFD0020ADF80000ADF886
:101CE00002004FF40070ADF804000020ADF80600CB
:101CF00069468E48FFF79DFB4FF4E13002900020CB
:101D0000ADF80C00ADF80E00ADF81000ADF8140001
:101D10000C20ADF8120002A98448FFF730FB40F216
:101D200025518248FFF770FC012240F225517F487F
:101D3000FFF7A2FB01217D48FFF792FB06B010BD23
:101D400010B504467A4801780078401C784A107033
:101D500078484454012240F227717448FFF78CFB05
:101D600010BD10B500BF7148008810F0200FFAD0E8
:101D70006E48FFF7E9FBC0B210BD10B504460FE096
:101D800020780D2802D1FFF7DBFF08E020780A2831
:101D900002D1FFF7D5FF02E02078FFF7D1FF641CE6
:101DA00020780028ECD110BD10B50246012A06D0DB
:101DB000022A09D0032A15D0042A31D121E05E4B32
:101DC0001B785E4C23702BE05D485B4B1B780370E7
:101DD000594B5B784370584B9B788370564BDB783C
:101DE000C3701DE056481030534B1B780370524BA4
:101DF0005B784370504B9B7883704F4BDB78C3709C
:101E00000EE04F4808304C4B1B7803704A4B5B7810
:101E10004370494B9B788370474BDB78C37000BF9E
:101E200000BF10BD10B540F225514048FFF7F5FB4B
:101E300098B340F225513D48FFF719FC3B48FFF7A6
:101E400083FBC4B23F48007828B9FF2C6DD1012034
:101E50003C49087069E03B480078012809D1AA2C68
:101E600003D10220374908705FE00020354908702F
:101E70005BE034480078022805D133480470032021
:101E80003049087051E02F480078032806D12F48C8
:101E9000047004202B49087047E024E029480078AA
:101EA000042842D12A48007828490978884208DA6B
:101EB000214827490978445425480078401C244982
:101EC0000870234800782149097888422DD11F489D
:101ED00001781D480078FFF767FF00201C49087053
:101EE0001849087021E040F227711048FFF795FB70
:101EF000D8B1184802780078401C164B18700D486D
:101F0000815C0A48FFF71CFB40F227710748FFF786
:101F1000AEFB1048007806490978884205D10022B6
:101F200040F227710148FFF7A7FA10BD00380140C1
:101F300023000020D00000202A00002005000020FF
:101F40008802002026000020270000202800002012
:101F500029000020220000204FF0E021096921F033
:101F600004014FF0E0221161C21700EB5272D2104F
:101F70001F4B1A70194609784FF47A7251431D4A63
:101F80001180704701461B4A12884A434FF0E023F4
:101F90005A6100229A6101221A6100BF4FF0E022CB
:101FA000106910F0010F02D010F4803FF6D000222B
:101FB0004FF0E0231A619A61704701460C4A12788B
:101FC0004A434FF0E0235A6100229A6101221A61CC
:101FD00000BF4FF0E022106910F0010F02D010F4A2
:101FE000803FF6D000224FF0E0231A619A617047DB
:101FF0003200002034000020E1484078E0490978B0
:1020000040EA0120DF490988401A00B2DE49088011
:10201000DB48C078DA49897840EA0120D949498803
:10202000401A00B2D8494880D5484079D449097946
:1020300040EA0120D3498988401A00B2D2498880F9
:10204000CF48407ACE49097A40EA0120CF49098831
:10205000401A00B2CE490880C948C07AC849897A76
:1020600040EA0120C9494988401A00B2C84948805D
:10207000C348407BC249097B40EA0120C3498988A3
:10208000401A00B2C2498880C2480078F0BBC248FA
:10209000007870B90020BD49088048808880BF4919
:1020A0000860BF490860BF4908600120BA4908704C
:1020B0007047B748B0F90000B84909680844B74903
:1020C0000860B348B0F90200B54909680844B4494A
:1020D0000860AF48B0F90400B24909680844B14942
:1020E0000860AD480078C82823D1AC480068AA49E8
:1020F000097890FBF1F000B2A4490880A848006874
:10210000A549097890FBF1F000B200E016E09F4984
:102110004880A4480068A049097890FBF1F000B21B
:102120009A49888000209C490870012099490870CC
:10213000BEE799480078401C974908709A48007893
:10214000F0BB9A48007870B900208E49088048801A
:10215000888097490860974908609749086001207E
:1021600092490870A4E78848B0F9000090490968CE
:1021700008448F4908608448B0F902008D49096815
:1021800008448C49086089480078C82823D18848C9
:1021900000688649097890FBF1F000B2794908801F
:1021A000844800688149097890FBF1F000B27549D4
:1021B0004880814800687D49097890FBF1F000E093
:1021C0000EE000B26F498880002078490870012035
:1021D000754908706CE775480078401C73490870B1
:1021E00000BF65E710B5664B0E223B21682000F06A
:1021F0003AFB10BDF8B506460F4614461D466B4621
:1022000001223946304600F02EFB2DB10120A040BE
:102210009DF80010084305E00120A0409DF8001043
:1022200021EA0000C0B200909DF8002039463046F7
:1022300000F0F5FAF8BD2DE9F84307468846144644
:102240001D46089E6B4601224146384600F00BFBB6
:10225000601CFF2101FA00F0C4F108012944491E65
:10226000FF220A41104300F0FF09C5F1080006FAF9
:1022700000F0C6B2C4F1070046FA00F0C6B29DF8FD
:10228000000000EA090000909DF800003043009033
:102290009DF800204146384600F0C1FABDE8F883B9
:1022A00038B50446032302226B2168200094FFF70F
:1022B000C2FF38BD38B50446022304221B21682022
:1022C0000094FFF7B8FF38BD38B504460223042256
:1022D0001C2168200094FFF7AEFF38BD10B50446FE
:1022E000234606226B216820FFF784FF10BD10B53E
:1022F0000446234605226A216820FFF77BFF10BDB4
:1023000010B504462346012237216820FFF772FFEB
:1023100010BD38B50446032302221A216820009418
:10232000FFF789FF38BD10B50120FFF7B9FF022084
:10233000FFF728FE0120FFF7BDFF0220FFF722FE76
:102340000120FFF7C1FF0220FFF71CFE0320FFF76B
:10235000E0FF0220FFF716FE0020FFF7BFFF02207C
:10236000FFF710FE0020FFF7C2FF0220FFF70AFE72
:102370000120FFF7C5FF0220FFF704FE10BD00009B
:10238000D201002060000020660000205A000020DA
:102390006C00002038000020480000203C00002095
:1023A0004000002044000020390000205800002098
:1023B0004C00002050000020540000200EB50121E8
:1023C0000620FEF7A5F96846FEF7A8FC4FF6FF7059
:1023D000ADF804000020ADF80000ADF80600ADF83F
:1023E000020069462948FEF753FA002211462748A1
:1023F000FEF764FD01212548FEF7EFFE302123485A
:10240000FEF7F1FC07212148FEF71DFF80211F4840
:10241000FEF722FF01211D48FEF7A3FD4FF6FF70D6
:10242000ADF804004820ADF800000020ADF806002B
:10243000ADF8020069461648FEF72AFA0121144851
:10244000FEF78FFD04211248FEF7FDFE0121104822
:10245000FEF7CFFE20210E48FEF7ECFE80210C484F
:10246000FEF7FAFE01210A48FEF77DFC012107482C
:10247000FEF779FC0EBD0020064908884FEA0040AF
:102480004FF08041B1F82418084470470004004020
:10249000000800402404004010B588B00024012149
:1024A0000820FEF728F90F20ADF81C0003208DF856
:1024B0001E0018208DF81F0007A94348FFF710FAE7
:1024C00001210846FEF724F9022440F2E730ADF876
:1024D0001400ADF810400020ADF81600ADF8120061
:1024E00004A96007FEF7D4F96020ADF800000120D0
:1024F000ADF802000020ADF80600ADF8080069460E
:102500006007FEF7DEF90821C806FEF75AFD012034
:10251000ADF802000020ADF8060069466007FEF73E
:1025200007FA0821C806FEF755FD0120ADF80200A4
:102530000020ADF8060069466007FEF73FFA082163
:10254000C806FEF752FD0120ADF802000020ADF8EC
:10255000060069466007FEF775FA0821C806FEF70F
:102560004DFD01218807FEF7FCFC01218807FEF7DD
:10257000FAFB08B010BD30B5B0F57A7F01DB40F250
:10258000E730B1F57A7F01DB40F2E731B2F57A7FCF
:1025900001DB40F2E732B3F57A7F01DB40F2E7334B
:1025A000002800DA0020002900DA0021002A00DAE1
:1025B0000022002B00DA00234FF08045A8862987EF
:1025C000AA87024D2B8030BD00080140400000402A
:1025D000072000E0401E0028FCD1704710B5802085
:1025E000C04908604FF04000BF49C1F8100CFFF728
:1025F000EFFFBE48006808B9012000E0002010F09D
:10260000800F01D0002010BD8020B9490860FFF77D
:10261000DFFFB548D0F8080C10F0800F01D0002083
:10262000F1E78020B2490860FFF7D2FF0120EAE716
:1026300010B54020AE490860FFF7CAFF8020AA49C4
:10264000C1F8140CFFF7C4FF4020A6490860FFF74B
:10265000BFFF8020A449C1F8100CFFF7B9FF10BDDF
:1026600010B54020A2490860FFF7B2FF80209E49C4
:10267000C1F8140CFFF7ACFF40209A490860FFF73F
:10268000A7FF40209849C1F8140CFFF7A1FF10BD27
:1026900010B5402096490860FFF79AFF80209249C4
:1026A000C1F8100CFFF794FF40208E490860FFF737
:1026B0008FFF40208C49C1F8140CFFF789FF10BD33
:1026C00010B540208A490860FFF782FF80208649C4
:1026D000C1F8100CFFF77CFF402082490860FFF72B
:1026E00077FF8148D0F8080C10F0800F05D040200B
:1026F0007F4908604FF0000010BD40207C49086011
:102700004FF00100F8E770B50446082517E04020B7
:1027100077490860FFF75CFF14F0800F03D080203A
:102720007049086002E08020714908606006040E6C
:10273000FFF74EFF40206B490860FFF749FF280074
:10274000A5F10101CDB2E2D140206949086070BD18
:1027500070B50825002480206249086013E06006F7
:10276000040E402062490860FFF732FF40205E49B6
:10277000C1F8100CFFF72CFF5C48006810F0800FC8
:1027800001D044F001042800A5F10101CDB2E6D149
:10279000402057490860204670BD08B5C020ADF8FC
:1027A000000002208DF8020014208DF80300694615
:1027B0004E480838FFF794F808BD2DE9F04105466A
:1027C0000E4617469846FFF709FF10B90020BDE8EE
:1027D000F081002141EA4501C8B2FFF794FFFFF7FD
:1027E0006FFF18B9FFF724FF0020F0E73046FFF72E
:1027F0008AFFFFF765FF00240BE018F80400FFF7DD
:1028000082FFFFF75DFF18B9FFF712FF0020DEE738
:10281000641CBC42F1DBFFF70BFF0120D7E770B56A
:1028200004460D461646FFF7D9FE08B9002070BDD4
:10283000002141EA4401C8B2FFF765FFFFF740FFFE
:1028400018B9FFF7F5FE0020F1E72846FFF75BFF18
:10285000FFF736FF3046FFF756FFFFF731FFFFF770
:10286000E7FE0120E3E72DE9F04105460F46144657
:102870001E46FFF7B3FE10B90020BDE8F08100212D
:1028800041EA4501C8B2FFF73EFFFFF719FF18B94B
:10289000FFF7CEFE0020F0E73846FFF734FFFFF7E2
:1028A0000FFFFFF79BFE012101EB4501C8B2FFF7C7
:1028B0002AFFFFF705FF0CE0FFF74AFF3070012CFD
:1028C00002D1FFF7E5FE01E0FFF7CAFE761C601EAD
:1028D000C4B2002CF0D1FFF7ABFE0120CDE7002001
:1028E00070470000100C014000000140080C01403E
:1028F000140C01402DE9F05F0027B846B946FFF7F8
:10290000BAFD054602F004FA0446FF4902F00AF94E
:10291000FE490860FE49B1F9000001F005FD82465C
:10292000FC4AFD4B01F054FD044601F0B9FAFB49A5
:102930000860F749B1F9020001F0F6FC8246F54A59
:10294000F54B01F045FD044601F0AAFAF349486051
:10295000EF49B1F9040001F0E7FC0446ED4AEE4B03
:1029600001F036FD824601F09BFAEC498860EC49A3
:10297000B1F9000001F0D8FC0446EA4AEA4B01F044
:1029800027FD824601F08CFAE8490860E449B1F974
:10299000020001F0C9FC0446E24AE34B01F018FDD5
:1029A000824601F07DFAE1494860DD49B1F9040051
:1029B00001F0BAFC0446DB4ADB4B01F009FD82461C
:1029C00001F06EFAD9498860D1480088D849D94ABF
:1029D000127821F81200CE484088D749D54A12789B
:1029E00021F81200CA488088D449D24A127821F8C6
:1029F000120000260DE0CE4830F916000744CE48FC
:102A000030F916008044CD4830F916008144701C1E
:102A1000C6B20A2EEFDB0A2097FBF0F000B2C849DD
:102A200008800A2098FBF0F000B248800A2099FB49
:102A3000F0F000B28880BF480078401CBD490870A3
:102A4000084600780A2801D100200870BD48C068F7
:102A5000BC49886108460169C16141690162006839
:102A6000B849C86008464168016181684161AF4961
:102A70000868A649096802F093F90446B14801685C
:102A8000204601F0E1FFAF490860A84948689F4926
:102A9000096802F085F90446AA484168204601F019
:102AA000D3FFA8494860A14988689849096802F09D
:102AB00077F90446A3488168204601F0C5FFA14983
:102AC00088600120A0490870BDE8F09F0FB59FB055
:102AD0009E480168006802F063F917909C480168FD
:102AE0009A48006802F05CF916909A480168974885
:102AF000006802F055F915909748016893480068FE
:102B000002F04EF9149092480168006802F048F90A
:102B10001390904801688E48006802F041F91290C5
:102B20008D4801688A48006802F03AF91190894896
:102B30000168006802F034F9109087480168854800
:102B4000006802F02DF90F9083480168006802F0D8
:102B500027F90E902599084602F022F90890249949
:102B6000084602F01DF906902299084602F018F96D
:102B70000590069901F068FF0790089901F064FF3D
:102B8000099001F035FFCDE90A0101F063F9CDE9C3
:102B90000C0101F085F91E9070491E9802F0CCF8E6
:102BA00006D26F491E9802F0CEF901D223B000BDC3
:102BB000FFF761FC6B490860084600686A490968CC
:102BC000884211D2684800684FF6FF71081A6549BB
:102BD000096808440C9002F09BF864490D9001F0DC
:102BE000A1FF634908600DE05E4800685E4909681E
:102BF000401A0C9002F08CF85C490D9001F092FFA5
:102C00005B49086057480068574908601E99229838
:102C100001F088FF22901E99249801F083FF2490F0
:102C20001E99259801F07EFF25901599119802F0C4
:102C3000C5F94FF080410D9002F0B2F81D900F9948
:102C4000169801F001FF4FF080410D9002F0A8F8B6
:102C50001C901399179802F0B1F90C90109902F09A
:102C6000ADF90D900E9901F0EFFE1B901C9925987F
:102C700002F096F80D901B99249802F091F80C90B0
:102C80000D9902F09BF91A901B99229802F088F88E
:102C90000D901D99259802F083F80C900D9902F083
:102CA0008DF919901D99249802F07AF80D901C99CD
:102CB000229802F075F80C900D9902F07FF91890A7
:102CC0002C491A9802F06CF80D902B4801680D9869
:102CD00001F0BAFE284908602649199802F060F808
:102CE0000D90264801680D9801F0AEFE234908605A
:102CF0002049189802F054F80D90214801680D9869
:102D000001F0A2FE1E493DE0002474499800002015
:102D1000660000204CBD1358A599533FE0010020E8
:102D20006C000020AE0CAA0D4E448F3FEC01002039
:102D3000400200209400002054020020680200207D
:102D40009C000020F8010020750000207800002081
:102D50007C000020800000208400002017B7D138BC
:102D600017B7D1B8AC000020A80000200024F44917
:102D7000B00000206F12033C880000208C0000206F
:102D8000900000200860FF481A9902F009F80C90A2
:102D90001F9901F059FE0D90FB4801680D9801F054
:102DA00053FE1F90F748199901F0FAFF0C902099F3
:102DB00001F04AFE0D90F54801680D9801F044FEBF
:102DC0002090F048189901F0EBFF0C90219901F048
:102DD0003BFE0D90EE4801680D9801F035FE219004
:102DE000EC482199006801F0DBFF0B90EA4820993C
:102DF000006801F0D5FF0990E848006880F00040C5
:102E000007901F9901F0CCFF0890099902F0D6F8BD
:102E10000A900B9902F0D2F80C90E14801680C98E6
:102E200001F0BEFF0D90DF4801680D9801F00CFE27
:102E3000DC490860D7482099006801F0B1FF0B9089
:102E4000D5482199006801F0ABFF0990D548016889
:102E50001F9801F0A5FF0890099901F0F5FD0A906F
:102E60000B9902F0ABF80C90CD4801680C9801F07A
:102E700097FF0D90C94801680D9801F0E5FDC7491D
:102E80000860C44801681F9801F08AFF0B90C3488E
:102E90002199006801F084FF0990C24820990068D8
:102EA00001F07EFF0890099902F088F80A900B99CA
:102EB00001F0CAFD0C90BA4801680C9801F070FF4F
:102EC0000D90B54801680D9801F0BEFDB24908604B
:102ED000084601681F9801F063FF0B90AF482099E6
:102EE000006801F05DFF0990AE482199006801F08B
:102EF00057FF0890099901F0A7FD0A900B9902F07D
:102F00005DF80C90A64801680C9801F049FF0D90FF
:102F1000A04801680D9801F097FD9E490860084699
:102F20000168006801F03CFF08909B480168006858
:102F300001F036FF069099480168006801F030FF03
:102F4000049098480168006801F02AFF03900499F2
:102F500001F07AFD0590069901F076FD0790089939
:102F600001F072FD099001F043FDCDE90A0100F086
:102F700071FFCDE90C0100F093FF1E9089481E9966
:102F8000006801F0CFFD8749086084481E990068F9
:102F900001F0C8FD814908607F481E99006801F072
:102FA000C1FD7D4908607B481E99006801F0BAFDAB
:102FB00078490860794801684FF0804001F0F0FEE0
:102FC000019076480168019801F0EAFE0390754887
:102FD00001684FF0804001F0E3FE01907148016804
:102FE000019801F0DDFE0290039901F02DFD4FF0F4
:102FF0007E51049001F0E2FF059001F0F9FCCDE96B
:103000000801684801684FF0804001F0C9FE029055
:1030100060480168029801F0C3FE04905F480168AF
:103020004FF0804001F0BCFE02905B4801680298BE
:1030300001F0B6FE0390049901F0C0FF059001F085
:10304000D7FCCDE90601DDE9082300F043FE4FF08F
:103050006632554BCDE90A0101F0BAF9CDE90C0110
:1030600000F01EFF514988604E4801684FF08040D3
:1030700001F096FE049048480168049801F090FE23
:103080000690464801684FF0404001F089FE0490E8
:1030900040480168049801F083FE0590069901F00C
:1030A000D3FC079001F0A4FCCDE9080100F0C0FBBF
:1030B0004FF066323C4BCDE90A0101F089F9CDE9C8
:1030C0000C0100F0EDFE39494860334801684FF0CB
:1030D000804001F065FE01902F480168019801F0E1
:1030E0005FFE03902D4801684FF0404001F058FE0C
:1030F00001902A480168019801F052FE029003995C
:1031000001F05CFF4FF07E51049001F09DFC0590B2
:1031100001F06EFCCDE90801224801684FF08040C3
:1031200001F03EFE02901D480168029801F038FE51
:103130000490194801684FF0804001F031FE029080
:1031400014480168029801F02BFE0390049901F0E5
:103150007BFC059001F04CFCCDE90601DDE908237C
:1031600000F0B8FD4FF066320F4BCDE90A0101F0D7
:103170002FF9CDE90C0100F093FE0C49086000BF67
:1031800014E5000000002041880000208C00002091
:103190009000002084000020800000207C0000209F
:1031A000B00000207800002066A64C407C02002081
:1031B0002DE9FF5F34480078E8B3002032490870F9
:1031C0003249B1F9040001F08BFD83462F49B1F972
:1031D000020001F085FD2D490390B1F9000001F0D6
:1031E0007FFD2B490290886801F002FC0646294ABF
:1031F000294B01F0EDF8044600F052FE80462449C8
:10320000486801F0F5FB0646224A234B01F0E0F83E
:10321000044600F045FE81461D49086801F0E8FBC0
:1032200006461C4A1C4B01F0D3F8044600F038FE59
:103230008246039A00E006E0CDE9002B424649466B
:10324000029BFFF743FCBDE8FF9F10B50020134928
:10325000086048608860124A1168104A106801F0DE
:10326000ADFE104908600E4A51680C4A506801F0E2
:10327000A5FE0C4948600A4A9168084A906801F026
:103280009DFE0849886010BD750000209C0000204C
:10329000EC010020A835CD3B4ED1913F2802002003
:1032A0007C02002034020020ED48EE490860002036
:1032B00088604FF08040086100204860C860486125
:1032C000E948886100204862886270472DE9F0472C
:1032D000E64A1168E34A106801F062FDE4490860BB
:1032E000E449086801F084FB0446E34AE34B01F03B
:1032F0006DF90CD2DF49086801F07AFB0446DE4A1A
:10330000DF4B01F029F802D20020DE490860D94ADB
:103310001168D44A906801F043FD0446D948016819
:10332000204601F041FED7490860D0490868D649D7
:1033300001F036FDCB4988618869002101F0FCFC71
:103340000AD2C848806980F00044D049204601F084
:103350007BFBC449886106E0C2498869CB4901F01A
:1033600073FBC0498861BF488169C648006801F0A5
:10337000EAFD03D2BB488069C2490860B948806948
:1033800080F00044BF480168204601F0DCFD05D212
:10339000B448806980F00040BA490860B9480168C3
:1033A000B348006801F050FBB1490860B84A1168A1
:1033B000AC4A106901F0F4FC0446AD4801682046AF
:1033C00001F0F2FDAA490860A84A5168A54A1068B0
:1033D00001F0E6FCAF490860A649486801F008FB27
:1033E0000446A54AA54B01F0F1F80CD2A149486862
:1033F00001F0FEFA0446A04AA14B00F0ADFF02D254
:103400000020A54908609B4A5168964A906801F0DF
:10341000C7FC0446A0480168204601F0C5FD9E494E
:10342000086090498869002101F086FC0AD28D4825
:10343000806980F000449549204601F005FB8949E8
:10344000886106E087498869904901F0FDFA85495D
:10345000886184498869002101F06EFC05D28148A9
:10346000806980F000407F4988617E4881698A4890
:10347000006801F068FD03D27A48806986490860D7
:103480007848806980F0004483480168204601F054
:103490005AFD05D27348806980F000407E4908607B
:1034A0007D4801687B48006801F0CEFA79490860E0
:1034B000774A51686B4A106901F072FC04467548FE
:1034C0000168204601F070FD72490860674A916802
:1034D000644A106801F064FC7049086065498868B6
:1034E00001F086FA0446644A644B01F06FF80CD28E
:1034F0006049886801F07CFA04465F4A604B00F03E
:103500002BFF02D20020664908605A4A9168554A4A
:10351000906801F045FC044661480168204601F0CE
:1035200043FD5F4908604F498869002101F004FCB0
:103530000AD24C48806980F000445449204601F08A
:1035400083FA4849886106E0464988694F4901F095
:103550007BFA4449886143498869002101F0ECFB0A
:1035600005D24048806980F000403E4988613D486E
:1035700081694B48006801F0E6FC03D23948806954
:10358000474908603748806980F000444448016832
:10359000204601F0D8FC05D23248806980F0004016
:1035A0003F4908603E4801683C48006801F04CFA19
:1035B0003A490860364A91682A4A106901F0F0FBDE
:1035C000044636480168204601F0EEFC33490860A5
:1035D00034490978491E01EB8101480001F080FB64
:1035E00031490860224801682F48006801F0E6FC74
:1035F000044601F059FB06B2264801682A480068D3
:1036000001F0DCFC044601F04FFB07B218480168EA
:103610002548006801F018FA044601F045FB0FFA4E
:1036200080F81C4801682048006801F00DFA044643
:1036300001F03AFB0FFA80F91A480078002806DDFD
:1036400043463A4631464846FEF795FF05E00023DB
:103650001A4619461846FEF78EFFBDE8F0870000AF
:103660000000A040880200200000964334020020A1
:10367000B80000207C0200209A9999999999B9BFC5
:103680009999B93FC4000020000020410000C842C1
:10369000EC010020BC000020C8000020C000002079
:1036A000CC00002005000020B400002070477047C7
:1036B000704710B500F008F8006810BD10B504465A
:1036C00000F002F8046010BD01487047704700BF69
:1036D000B402002000487047B40200207546FFF78E
:1036E000F9FFAE4605006946534620F007008546BF
:1036F00018B020B5FEF742FABDE820404FF00006B2
:103700004FF000074FF000084FF0000B21F00701C9
:10371000AC46ACE8C009ACE8C009ACE8C009ACE80C
:10372000C0098D4670470446AFF300802046FCF781
:1037300048FD000001487047704700BFB8020020F4
:1037400001491820ABBEFEE7260002007047490081
:1037500050EAC12018BF04204A0D18BF40F00100F4
:1037600040F2FF72B2EB515F08BF40F00200012847
:1037700008BF052070472DE9F0414F1E00EBC7013F
:103780000446D1E9000115461E4637F006020DD069
:103790002A46334600F01CFE7F1E04EBC703D3E924
:1037A000002300F0AFFB37F00602F1D1022F25D045
:1037B000042F13D0062F18BFBDE8F0812A463346E8
:1037C00000F006FED4E90A2300F09CFB2A463346AB
:1037D00000F0FEFDD4E9082300F094FB2A463346AE
:1037E00000F0F6FDD4E9062300F08CFB2A463346B0
:1037F00000F0EEFDD4E9042300F084FB2A463346B2
:1038000000F0E6FDD4E9022300F07CFB2A463346B3
:1038100000F0DEFDD4E90023BDE8F04100F072BB0A
:10382000024A0020110701F070BC000001FDFFFFFB
:103830002DE9F04D914F21F0004A86B005460C4627
:10384000BA452FDBAAEB070028430BD08C488245F2
:1038500001DC1BD1D5B106B02846BDE8F04D0122F0
:1038600001F053BC874A884B284600F0B1FD07465B
:103870000E46864A864B2846214600F0A9FD06B032
:103880003A463346BDE8F04D00F03CBB0120FFF75F
:1038900015FF06B00022BDE8F04D13461046114654
:1038A00000F0EABB7B48824543DABAF1795F0BDA74
:1038B0002846FFF74CFF042808BFFFF7B1FF284652
:1038C00006B02146BDE8F08D0B462A462846214623
:1038D00000F07EFD834602466F480E460B460621E9
:1038E0007844FFF748FF5A46334600F071FD8046A2
:1038F0006A488A465A46334604217844FFF73BFF1C
:103900005A46334600F064FD00223B4600F0FAFAC6
:1039100002460B464046514600F0AEFB2A4623467F
:1039200000F056FD06B02A462346BDE8F04D00F0F3
:10393000E9BA284624F0004100223D463B4600F00B
:103940007BFE4FF0FF3201F0E0FB06460246544892
:103950000F460B4606217844FFF70DFF32463B46E3
:1039600000F036FDCDE900014E4832463B460421C9
:103970007844FFF700FF32463B4600F029FD002265
:103980002B4600F0BFFA834602913046394600F0DC
:1039900061FA804644480D46504517DCDDE90001D8
:1039A0005A46029B00F068FB42462B4600F010FD91
:1039B00042462B4600F0A6FA012201F0A6FB314A4E
:1039C000314B00F02BFF314A314B4DE04FF0000AF4
:1039D0000B4652464046294600F094FACDE90310C2
:1039E00052462B465046294600F0F2FC32463B46F2
:1039F00000F022FEDDE9033200F03EFB06460F46F2
:103A0000DDE900015A46029B00F036FB8346009137
:103A100001223046394601F078FB1A4A1A4B00F071
:103A20000BFE06460F4601224046294601F06DFB7B
:103A30005A46009B00F0CCFC32463B4600F0EEFEBE
:103A400007460E4601225046294601F05EFB0F4D07
:103A5000DFF858802A46434600F0EEFD3A463346EA
:103A600000F0EAFD2A46434600F0E6FD002CD8BFF0
:103A700081F0004106B0BDE8F08D00000000F03F8D
:103A80000000F07F075C143326A6913C182D4454A7
:103A9000FB21F93F0000E03FBC180000D2180000F5
:103AA000461800005C1800003333EF3FFB21E93F6C
:103AB0002DE9F84F04460D4621F00040009174496D
:103AC000884212DB7349884201DC07D134B12046B9
:103AD0002946BDE8F84F012201F017BB6E48002DC2
:103AE000CCBF6E496E49BDE8F88F6E49884211DA45
:103AF0006D498842A8BF4FF0FF366DDA204629464F
:103B0000FFF725FE042808BFFFF78AFE2046294656
:103B1000BDE8F88F6549DFF898A125F00045884297
:103B200032DA6449884219DA002632464FF080437F
:103B30002046294600F0E6F907468846012220463D
:103B4000294601F0E2FA0022534600F067FE3A46A9
:103B5000434600F091FA04460D463DE0012600225E
:103B600053462046294600F0CDF9074688460022F4
:103B700053462046294600F051FE43463A4600F09F
:103B80007BFA04460D4627E04B4988421BDADFF8F2
:103B90002C810226002243462046294600F018FCCC
:103BA0000022534600F0AEF982460F4600224346FB
:103BB0002046294600F032FE52463B4600F05CFAB1
:103BC00004460D4608E0032622462B4600203C49C9
:103BD00000F052FA04460D4622462B46204629465E
:103BE00000F0F6FB8B46824602460B4600F0F0FBE7
:103BF00007460246334888460B4606217844FFF7BD
:103C0000BAFD52465B4600F0E3FB82462E488B46E7
:103C10003A46434605217844FFF7ADFD3A46434610
:103C200000F0D6FB02460B46002E504659460CDAF1
:103C300000F068F922462B4600F0CAFB01B022468C
:103C40002B46BDE8F04F00F0F7BC00F05BF92246D0
:103C50002B4600F0BDFB1D4A7A4402EBC603D3E9B4
:103C6000002300F0DBFD22462B4600F0D7FD184A6A
:103C70007A4402EBC603D3E9002300F0DDFC009A8E
:103C8000002AB4BF81F00041BDE8F88FBDE8F88F8D
:103C9000000010440000F07F182D4454FB21F93F30
:103CA000FB21F9BF0000DC3F0000203E0000F33F95
:103CB0000000F03F0000E63F008003400000F83FB6
:103CC0000000F0BF5816000016160000B4150000E2
:103CD0007C1500002DE9F04D9446CCF1000423F052
:103CE00000464CEA0404524F46EAD47498468A4689
:103CF00021F00042BC4206D8454240EA050442EAAF
:103D0000D474BC4204D9BDE8F04D624600F0FAB864
:103D1000A8F14055A5F17F6555EA0C040BD00224AB
:103D200004EAA874434DDFF810E144EADA7452EA79
:103D3000000B04D00CE0BDE8F04DFFF7B9BE002C3D
:103D400014BF012CBDE8F08D022C30D0032C32D0F2
:103D500056EA0C0B0AD0BE4220D1BA4209D126F055
:103D6000804622F080423346114617E000291ADBD4
:103D700025E0DFF8C8B0FB44002C04BFDBE90001FC
:103D8000BDE8F08D012C02BFDBE9000181F00041AC
:103D9000BDE8F08D022C0AD0032C0CD0BA4212D10F
:103DA000BAF1000F0BDA23482549BDE8F08D28460B
:103DB0002449BDE8F08D28467146BDE8F08D1D48C8
:103DC0002149BDE8F08D921B12153C2AC4BF194849
:103DD0001D490EDCB8F1000FBEBF12F13C0F0020F0
:103DE000014606DB624600F047F921F00041FFF78B
:103DF0005FFE002C08BFBDE8F08D012C04BF81F0F0
:103E00000041BDE8F08D114A114B022C07D000F0A3
:103E100005FD2A46BDE8F04D0A4B00F0FFBC00F05E
:103E2000FDFC2A46BDE8F04D064B00F005BC000045
:103E30000000F07F182D4454FB2109C00E1500002E
:103E4000FB21F9BFFB210940FB21F93F075C14333B
:103E500026A6A13C2DE9F04106460F4600F0F8FBEE
:103E600004000D4618BF0120284320F00040C0F197
:103E70007F6010F1E0400ED5002E14BF012000201D
:103E8000384320F00040C0F17F6010F1E0405CBF9B
:103E90000120FFF713FC20462946BDE8F081000011
:103EA00021F00042A2F16052B2F5801F01F0004300
:103EB00028BFD2F17F6C0BD95FEA001C43EAC20233
:103EC00042EB507018BF704728BF20F001007047C8
:103ED000B2F5801FBCBF184670474FEA410C1CF575
:103EE000001F02D2084601F029B870B500F01AFB95
:103EF00000000089FFF7F6BF4FF00040A0F58000FA
:103F00007047000010B591EA030F48BF83F00043EB
:103F100000F18C84841A71EB030E05D2121943EB65
:103F20000E03001B61EB0E01DFF820C14FEA1154B4
:103F3000A4EB135E1CEA430F18BF9CEA445F71D0E8
:103F400023EA0C03DEF1200C21EA045143F4801330
:103F500032D322FA0EFC10EB0C0023FA0EFC41EBDC
:103F60000C01CEF1200C03FA0CFC10EB0C0051F10B
:103F70000001B1F5801FCEF1200C32D201EB0451CB
:103F8000BDE8104012FA0CF258BF7047401C38BF11
:103F90005FEA420218BF7047002814BF20F00100FA
:103FA00041F100014FEA410313F5001F38BF70478C
:103FB000A1F1C04100F004BB012A43EB0302AEF1C2
:103FC000200EDEF11F0C32BF4FF0000C23FA0EF36F
:103FD00010EB030041EB0451B4EB115FD0D0A1EB27
:103FE000045101F58011490801EB0451BDE810406E
:103FF0005FEA30000CD350F1000038BF12FA0CFC1D
:1040000006D1C9E7401C38BF5FEA4202CAD1C3E704
:104010004FEA410313F5001F38BF7047A1F1C041BB
:1040200000F0CEBA9CEA445F08D0BDE8104011EA27
:104030005C0F04BF01F0004100207047BDE8104054
:1040400070B500F06FFA00BF64FBBE3E0000E0FFF9
:1040500002494FF0000001F026B800BF0000F87FD1
:10406000491058BFC1F140415B1058BFC3F14043F4
:104070008B42EFF3008070472DE9C04130B4DFF888
:10408000A0C23CEA111418BF3CEA131400F0EC8003
:1040900081EA03051CEA111444EAD57418BF1CEA2E
:1040A000131500F0C780A4EB05044FF0004545EA66
:1040B000C12145EAC32341EA505143EA525304F176
:1040C0007F74994204F500344FEAC0204FEAC222BF
:1040D00008BF904200F09C804FEA13650FF2401633
:1040E000765D4FEA134506FB05F7C7F1807706FBBF
:1040F00007F74FEAD737A7FB03687642C8F5803841
:10410000A7FB06CE38BFA8F1010807FB08E64FF071
:10411000000EA6FB028CE6FB03CEDCF1000CCEF118
:10412000004E38BFAEF1010EA6FB0C584FF0000751
:104130004FF00005E6FB0E87A1FB08C6A0FB07CEEB
:1041400016EB0E0645F10005E1FB076515F1E04EA3
:104150007EBFA4F580345FEA46066D4116F1800704
:1041600045F100054FEA17274FEA066647EA05675B
:10417000A6F1DE46B6F1805F4FEA15251FD9384615
:1041800024F0010C05EBC471BCF1FE6F01EB0C11C6
:1041900002D8F0BCBDE8008124425CBF01F5801E5E
:1041A0009EEAC47F02D4F0BCBDE80081244238D42A
:1041B000F0BCA1F1C041BDE8004100F001BA4FEAF6
:1041C000D22242EA43524FEAD323A7FB02864FEAA8
:1041D000D02040EA415007FB03661EEA0E0F4FEA6B
:1041E000D12105FB026658BFA6EB0056B6EB005680
:1041F0004FEA520E4EEAC37E18EB0E0E56EB530EEC
:10420000BDD518EB02085E417F1C55F10005B6E7ED
:104210004FF480154FF000074FF000064FF00008F4
:10422000ADE7F0BC4FF0000001F1C04101F00041EA
:10423000BDE8008111EA0C1F0CEA131500D00CE058
:1042400013EA0C1F00F025804FF00000F0BC81EA5B
:10425000030101F00041BDE80081F0BCBDE8004170
:1042600081EA030100F0ACB9F0BCBDE8004170B5D3
:1042700000F058F9097EFC3E00F007B881EA03011E
:104280004FF0000001F00041704781EA030100F0A7
:1042900097B9F0BCBDE800414FF0000021497047DC
:1042A000FFFDFBF9F7F5F4F2F0EEEDEBE9E8E6E4FB
:1042B000E3E1E0DEDDDBDAD8D7D5D4D3D1D0CFCD82
:1042C000CCCBCAC8C7C6C5C4C2C1C0BFBEBDBCBBBB
:1042D000BAB9B8B7B6B5B4B3B2B1B0AFAEADACABB6
:1042E000AAA9A8A8A7A6A5A4A3A3A2A1A09F9F9E90
:1042F0009D9C9C9B9A999998979796959594939342
:10430000929191908F8F8E8E8D8C8C8B8B8A8989D8
:10431000888887878685858484838382828181805B
:104320000000FF070000F87F10F0004248BF404245
:10433000B0FA80F310FA03F10AD0C3F11D0303F5BC
:1043400080634FEA415002EB035202EBD1217047E8
:104350004FF000007047000051EA030C17D41CF521
:10436000801F58BFBCF5801F00F10680994218BF1E
:10437000704708BF9042704707D711F5801F58BF9C
:1043800013F5801F19D499427047894270471CF574
:10439000801F08D5BCF5801FF7D58B4218BF70472A
:1043A00008BF824270474FF4001C1CEB410F38BF1E
:1043B0001CEB430F01D28B42704770B500F0B2F88E
:1043C000922449004FF000514FF08053FFF748BE50
:1043D000DFF848C170B51CEA111E1EBF1CEA131598
:1043E0009EEA0C0F95EA0C0F00F06F8081EA03043F
:1043F00023EA4C134EEAD47E21EA4C1141F4801199
:1044000043F48013AE44A1FB024CA0FB0365AEF164
:104410007F7E361955EB0C05A1FB034C4CF10003D4
:10442000A0FB021C16EB0C06654153F10003094288
:1044300018BF46F0010613F4007F0BD14FEA033199
:104440004FEA0530340341EA155140EA16506FF047
:1044500003020AE04FEAC3214FEAC520F40241EA11
:10446000555140EA56506FF0020202EB2E4201EB2A
:10447000025585EACE710AD05FEA440C18BF24F0D9
:10448000004450F1000041F1000120EAD47040F2F4
:10449000FE7C624500D270BDA84214BF4FF080443C
:1044A0004FF04044002E08BF0024BEF1806FA8BF2B
:1044B000A1F1C041BDE8704080F282804FF0000061
:1044C00001F1C04101F0004170479EEA0C0F0CEA77
:1044D000131518BF95EA0C0F06D04FF0000081EAC3
:1044E000030E0EF0004170BD00F01CF88900013E83
:1044F00000F007B800F009B84FEA430C5FEA5C5CD3
:1045000008D081EA030100F05BB84FEA410C5FEA92
:104510005C5CF6D14FF00000014970470000FF07D6
:104520000000F87F0EF1020E2EF0030E5EF8046B11
:10453000364205D4012A43EB030515F5001F12D8B6
:10454000012841EB010C1CF5001F0CD80ED14FEADD
:10455000D17C15F5001F0CEB4C0C0CF1020C08BFC4
:104560004CEBD37C04E04FF0080C01E04FEAD37C25
:104570000CEB4C0526FA05F606F00706B6F1040C1E
:1045800006D20EEB860CBDE870404CF0010C604783
:10459000DFE80CF0090B02024FF000414FF0000081
:1045A000A1F5002170BD19461046012851EB010408
:1045B00018BFD4F5001484BF002001F0004170BD85
:1045C0000808A0F500114FEA3101704753EA010CC9
:1045D00017D41CF5801F58BFBCF5801F00F1068062
:1045E0008B4218BF704708BF8242704707D713F548
:1045F000801F58BF11F5801F19D48B4270479B4212
:1046000070471CF5801F08D5BCF5801FF7D599426F
:1046100018BF704708BF904270474FF4001C1CEB56
:10462000430F38BF1CEB410F01D2994270470FB4C2
:104630000CBC03BCFFF7C1BE91EA030F10B581F0BB
:1046400000413FF567AC83F0004300F0EFB8000095
:104650002DE9F04101F5801CBCF5001FC0F2C380BC
:104660004FEA115C21EA0C510CF1FD0C41F4801170
:104670005FEA5C0C0CF5C07C01D3400049413DA4CD
:10468000890241EA905187028E0E0A0CA45D04FB58
:1046900004F602FB06F6C6F14046A4FB0662F60DE0
:1046A00046EA422606FB06F4A4FB01235242C3F16C
:1046B000404338BF5B1EA6FB02420024E6FB0324F6
:1046C000D20B42EA4446A6FB0623A1FB02E2A3FB6F
:1046D00007E4A4184FF0000252F10002E3FB01428C
:1046E0006442C2F1404E38BFAEF1010EA6FB042376
:1046F0004FF00002E6FB0E32A2FB03464FF000042F
:10470000B61954F10004E2FB0264A1FB06E6A4FB27
:1047100007E816EB08064FF0000858F10008E4FB24
:1047200001687642C8F1405838BFA8F10108A2FBE1
:1047300006E4A3FB08E52D194FF0000454F1000432
:10474000E2FB0854A1FB05E6A7FB04E818EB06080A
:104750004FF0000656F10006E1FB048618F1200533
:1047600056F10006A809A8F11B08B10908F03F0896
:10477000B8F10A0F40EA86601CD901EB0C51BDE884
:10478000F08100BFFCF5EEE8E2DDD8D3CFCBC7C3A4
:10479000C0BDB9B6B4B1AEACA9A7A5A3A19F9D9B5E
:1047A0009A9896959392908F8D8C8B898887868521
:1047B00084838281A0FB006800FB01F208EB4208C1
:1047C000B8EB872807D5341858EB0104D5D5401C21
:1047D00051F10001D1E7341A78EB0104CDD4401E29
:1047E00071F10001C9E75FEA4C0C5FEA9C5C0DD1F6
:1047F00005D34FF0000001F00041BDE8F081BDE8B5
:10480000F04170B5FFF78EFE6DDBFFBEBDE8F041F5
:104810004FF00000004970470000F87F10B591EAA2
:10482000030F48BF83F000433FF574AB841A71EB6C
:10483000030E07D212198EF0004E43EB0E03001B3D
:1048400061EB0E01DFF8A4C14FEA1154A4EB135E33
:104850001CEA430F18BF9CEA445F00F0B08023EAD3
:104860006C03524221EA0451C3EB6C0338BF5B1E58
:10487000DEF1200C25D322FA0EFC10EB0C0043FADB
:104880000EFC41EB0C01CEF1200C03FA0CFC10EBFA
:104890000C0051F10001CEF1200C29D401EB0451A0
:1048A000BDE8104012FA0CF258BF7047401C1CBF04
:1048B000B2F1004F704700280CBF491C20F00100E6
:1048C000704712EB020C43EB030218BF4FF0010CD0
:1048D0004CEA4202AEF1200EDEF11E0C54D943FA2E
:1048E0000EFC10EB0C0051F1FF31CEF11E0CD5D5B2
:1048F0000CF1010C12FA0CFC404141EB010101EBFF
:10490000445E5FEA5E5E10D901EB0451BDE81040E1
:1049100010EBDC7038BFBCF1004F18BF70470028A7
:104920000CBF491C20F00100704730D24FEAD42E52
:1049300011F5001124F400641BD0B1FA81F20B3A96
:10494000A41AA41ED2F12003914030FA03F31943B4
:10495000904001EBCE71002C01EB0451BDE81040FA
:10496000A8BF704701F1C0414FF0000001F00041C5
:104970007047B0FA80F310FA03F100D110BDE41AC9
:10498000173C4805C90AE4E701EB045110BD491082
:1049900001EB0451BDE810404FEA300002E04FF057
:1049A000000170474A0008BF0042F8D0B2F5001F6E
:1049B00028BF704701F000414FF0000070479CEAAB
:1049C000445F07D0BDE8104011EA5C0F04BF00212E
:1049D00000207047BDE8104070B5FFF7A3FD00BF91
:1049E00040DFF63E83F00041104670470000E0FFD4
:1049F00043004FEAD30C4FEA3C0C43401FBF400733
:104A00000CF1605113F0FE4F70471CF0006F03D1A2
:104A100000200CF0004170470CF0004343EA507056
:104A200010B540EACC0000F03CFA00BF0000009254
:104A30004FEA0001FFF7C4BD4FF000414FF0000006
:104A4000A1F500217047000090EA010F48BF81F0F6
:104A5000004100F1BA82421A3CBF801A89184FEA1D
:104A6000D0524FF07F4C1CEA410FA2EBD15318BF3C
:104A70009CEA026F00F03B804FF0004C4CEA0020B3
:104A80004CEA012121FA03FC10EB0C0C1ED202F1BE
:104A9000FF325FEA1C2040EBC25038BF70471CF069
:104AA0007F0F4FEA400C18BFBCF17F4F38BF7047F3
:104AB000C3F12003994008BF20F00100BCF17F4FF3
:104AC00038BF7047A0F1C04000F038BA4FEA3C0050
:104AD000000A40EBC25028BF1CF0FF0F4FEA400C09
:104AE000E6D018BFBCF17F4F38BF7047EAE79CEAB9
:104AF000026F05D010EA5C0F08BF00F0004070475D
:104B000010B500F0CEF900BF64FBBE3E401058BFA8
:104B1000C0F14040491058BFC1F140418142EFF31C
:104B2000008070474FF47F0C1CEAD0121EBF1CEAB5
:104B3000D11392EA0C0F93EA0C0F00F0858090EAF3
:104B4000010F48BF42F4807240F4000C41F40000B1
:104B50002CF07F4120F07F4000B58142A2EB0302A0
:104B60000FF2081CACEB504EC0F100009EF800E0C4
:104B70004FEA4E0E00FB0EFC38BF49004FEA2C1CDA
:104B800002F5FA020CFB0EF34FEACE1E4FEA112C8F
:104B90004FEAC1210EEB635E42EB22420EFB0CFC9E
:104BA0004FEA1C5300FB03114FEA112C4FEA01316D
:104BB0000EFB0CFC4FEADC4C00FB0C11C14228BF81
:104BC00009184CEB03335DF804EB10EB410143EBA8
:104BD000C250B2F57C0F38BF704729D512F0F00FE4
:104BE0001CBF00F1C04000F000407047008182838C
:104BF0008485868788898B8C8D8E8F9192939596EC
:104C000097999A9C9D9FA0A2A3A5A7A8AAACAEB075
:104C1000B2B3B5B7B9BCBEC0C2C5C7C9CCCED1D47A
:104C2000D7D9DCDFE2E6E9ECF0F3F7FAFE000000AA
:104C30004FEA400C0CF1807CBCF17E4F28BF7047DE
:104C4000B0F1C04000F07AB990EA010F0CEAD1133C
:104C500048BF42F48072624538BF634507D213F4FF
:104C60007F0F16D080EA010000F00040704710B5B9
:104C700000F017F9097EFC3E00F005B880EA01005B
:104C800000F00040704780EA010000F0004000F0B2
:104C900055B912F47F0F04BF0248704780EA010043
:104CA00000F04CB90000C07F41000B0ED3F19E0212
:104CB00008D950F400034FEA032323FA02F048BF57
:104CC0004042704710B500F0ECF800BF49922480D4
:104CD000002070476FF0004282EA20007047000019
:104CE00010F0004148BF4042B0FA80F310FA03F2DE
:104CF000C3F19D030BD051EAC35101EB12205306BF
:104D000038BF704700F1010008BF20F00100704774
:104D1000B0FA80F310FA03F2C3F19D030AD0D9056B
:104D200001EB1220530638BF704700F1010008BFA5
:104D300020F001007047000050EA010C00F11380E0
:104D40001CF5000F58BFBCF5000F01D48842704716
:104D500007D710F5000F58BF11F5000F15D4884282
:104D60007047894270471CF5000F04D5BCF5000F51
:104D7000F7D5814270474FF0807C1CEB400F38BF65
:104D80001CEB410F01D28142704710B500F089F849
:104D9000922449004FF000504FF08051FFF7B6BE0B
:104DA0004FF47F0C1CEAD0121EBF1CEAD11392EA0A
:104DB0000C0F93EA0C0F00F0478090EA010F48BFF8
:104DC00042F480724FF0004C4CEA00204CEA012182
:104DD00002EB0302A0FB0113A2F50002002918BF99
:104DE00043F001035B0028BF4FEA330342EB22424A
:104DF0005FEA132C4CEBC2502EBFBCEB436FB2F5F5
:104E00007C0F70474FEA036CBCF1004F08BF20F0E5
:104E10000100B2F57C0F38BF70470BD582F0FF025E
:104E200012F5803FC8BF704700F1C040D8BF00F006
:104E30000040704700F5000C5FEA4C0C48BF70471B
:104E4000B0F1C04000F07AB890EA010F0CEAD1133B
:104E500048BF42F48072624538BF634504D280EA9D
:104E6000010000F00040704710B500F01AF800BFD4
:104E70008900013E00F007B800F009B85FEA410C74
:104E80005FEA1C6C08D080EA010000F057B85FEAC6
:104E9000400C5FEA1C6CF6D14FF00040A0F580009A
:104EA00070470EF1020E2EF0030E5EF8044B244202
:104EB00004D44FEA4102B2F17F4F11D84FEA4003C8
:104EC000B3F17F4F0CD80ED14FEAD07CB2F17F4FB7
:104ED0000CEB4C0C0CF1020C08BF4CEBD17C04E049
:104EE0004FF0080C01E04FEAD17C0CEB4C0324FAA4
:104EF00003F404F00704B4F1040C06D20EEB840CA6
:104F0000BDE810404CF0010C6047DFE80CF00708EA
:104F100002024FF00040A0F5800010BD084642009C
:104F200018BFD2F1807288BF00F0004010BD10B5EC
:104F3000FEF700FC4FF00001016010BDFF2141EAC7
:104F4000D050C005704751EA000C00F113801CF5E9
:104F5000000F58BFBCF5000F01D48142704707D73E
:104F600011F5000F58BF10F5000F15D4814270479E
:104F7000894270471CF5000F04D5BCF5000FF7D52A
:104F8000884270474FF0807C1CEB410F38BF1CEB10
:104F9000400F01D28842704780EA010081EA000197
:104FA00080EA0100FFF7F1BE80F0004090EA010FB7
:104FB0007FF551AD81F0004100F007B890EA010F94
:104FC00048BF81F000413FF546AD421A04D882F057
:104FD0000042A0EB020011444FEAD0524FF07F4C48
:104FE0001CEA410FA2EBD15318BF9CEA026F4AD0D2
:104FF0004FF0004C4CEA00204CEA012121FA03FC5E
:10500000B0EB0C0C0FD412F0FE0F36D05FEA4C0060
:105010001DD5001240EBC25038BF70471CF03F0F47
:1050200018BF70470BE0A2F101025FEA1C2040EBC1
:10503000C25038BF70471CF07F0F18BF7047C3F1D4
:105040002003994014BF401E20F0010070478008E3
:105050004FEA122308BF7047B0FA80FCA2EB0C02A3
:10506000CCF1280C60FA0CF093EA122F04BF00EB8D
:10507000C25070474FEAC3707047130A5FEADC10F2
:1050800008BF7047F6E79CEA026F04D010EA5C0F95
:1050900008BF0020704710B5FFF703FF40DFF63E62
:1050A00081F0004070470CF00F03092B08BF082067
:1050B00000F05B800A2B0BD0082B18BF704708BF8D
:1050C0001CF0400F0AD04FF000004FF00001704775
:1050D0001CF0400F18BF4FF0004070471CF0100F3D
:1050E00008D020F0704300F07F4242EAD3014FEA3B
:1050F0004370704700F0604021F07F4242EA0002B6
:1051000001F07F4040EA727070474FF0FF0C4CF4A2
:10511000E06C1CEA11531CBF9CEA030C9445C2BF0F
:10512000DA4201EB02517047002B0DD0BCF1000FA9
:105130000FD0002A01F00041A4BF41F0E04141F04E
:105140007F614FF00000704701F000414FF0000018
:10515000704750EA01334FF09B0C18BF4CF0806C45
:105160007EF476AFAFF3008070471CF4801F11D03F
:105170001CF4E02F03D06FEACC31490070474FF0A8
:105180004050EFF3008222F0704242EA000282F3C4
:10519000008870474FF000007047000000000000DA
:1051A000555555555555C53F7D6FEB0312D6D4BFA8
:1051B0005544880E55C1C93F3B8F68B52882A4BFAE
:1051C00088B20175E0EF493F09F7FD0DE13D023F6F
:1051D0004B2D8A1C273A03C0C88A599CE52A0040F7
:1051E00059018D1B6C06E6BF82922EB1C5B8B33F44
:1051F0004FBB610567ACDD3F182D4454FB21E93FEF
:105200009BF681D20B73EF3F182D4454FB21F93FDD
:10521000E2652F227F2B7A3C075C143326A6813C63
:10522000BDCBF07A8807703C075C143326A6913C0E
:10523000C4EB98999999C9BF711623FEC671BCBF7A
:105240006D9A74AFF2B0B3BF9AFDDE522DDEADBFE2
:105250002F6C6A2C44B4A2BF0D5555555555D53FFA
:10526000FF8300922449C23F6E204CC5CD45B73F15
:10527000513DD0A0660DB13FEB0D76244B7BA93F8D
:1052800011DA22E33AAD903F000000000000000078
:10529000B052000800000020D00000006C0100089F
:1052A00080530008D0000020480800008801000852
:1052B00000000000000000000000000000000000EE
:1052C00000000102030401020304060708090204A6
:1052D00006080000FFAA0000000000000000000017
:1052E00000000000000000000101000000000000BC
:1052F00000000000000000000000000000000000AE
:10530000000000000000000000000000000000009D
:10531000000000000000000000000000000000008D
:1053200000000000000000000000803F00000000BE
:10533000000000000000000000000000000000006D
:10534000000000000000000000000000000000005D
:10535000000000000000000000000000000000004D
:10536000000000000000000000000000000000003D
:10537000000000000000000000000000000000002D
:0400000508000131BD
:00000001FF
