:020000040800F2
:1000000000040020E71500088D0400088F04000894
:1000100093040008970400089B04000800000000F7
:100020000000000000000000000000009F04000825
:10003000A104000800000000A3040008A5040008B3
:10004000290400080716000807160008071600080C
:10005000071600080716000807160008071600080C
:1000600007160008071600080716000807160008FC
:1000700007160008071600080716000807160008EC
:1000800007160008071600080716000807160008DC
:1000900007160008071600080716000807160008CC
:1000A00007160008071600080716000807160008BC
:1000B00007160008071600080716000807160008AC
:1000C000071600080716000807160008071600089C
:1000D000071600083704000807160008071600086E
:1000E000071600080716000807160008071600087C
:1000F000071600080716000807160008071600086C
:10010000071600080716000807160008071600085B
:10011000071600080716000807160008071600084B
:10012000071600080716000807160008071600083B
:1001300000F002F800F03CF80AA090E8000C8244BD
:100140008344AAF10107DA4501D100F031F8AFF29A
:10015000090EBAE80F0013F0010F18BFFB1A43F0A5
:10016000010318475815000078150000103A24BF05
:1001700078C878C1FAD8520724BF30C830C144BF0C
:1001800004680C607047000000230024002500264E
:10019000103A28BF78C1FBD8520728BF30C148BFEA
:1001A0000B6070471FB501F082FA1FBD10B510BD7E
:1001B00001F041FA1146FFF7F5FF00F0C4F801F035
:1001C0005FFA03B4FFF7F2FF03BC01F069FA000025
:1001D00008B54FF4E06000F051FD00208DF80000FC
:1001E0008DF80100684600F04EFD25208DF80000D6
:1001F00000208DF801008DF8020001208DF8030029
:10020000684600F040FD08BD00B587B001214FF4FD
:10021000904000F0B0FA0020ADF80400ADF8060000
:100220004FF40070ADF808000020ADF80A0001A9F5
:10023000904800F0A8FB4FF4E13003900020ADF8A7
:100240001000ADF81200ADF81400ADF818000C2045
:10025000ADF8160003A9874800F03BFB40F225519A
:10026000844800F07BFC012240F22551814800F0D7
:10027000ADFB01217F4800F09DFB07B000BD08B534
:1002800001213C2000F077FA4FF40070ADF8000037
:1002900018208DF8030003208DF802006946764887
:1002A00000F0C8FD4FF48060ADF8000004208DF828
:1002B00003006946704800F0BDFD41F6FF70ADF8DF
:1002C000000010208DF8030003208DF8020069461D
:1002D0006A4800F0AFFD08BD10B500F0E5F84FF436
:1002E000803000F001F900F03EF9654908700846D9
:1002F0000078012826D1002000F077F9002000F0D6
:1003000086F94FF4806000F079F9022000F0CEFE0B
:10031000102000F0DFFE4FF4E0114FF4803000F0C9
:1003200047F9012000F050F900BF392000F0FFF834
:100330000028FAD0022000F04AF900BF00F050F97E
:100340000828FBD110BD0024FFF7C6FFFFF797FF79
:10035000FFF75AFFFFF73CFF40E04A48007861286A
:1003600008D12021454800F012FE4021434800F00A
:100370000EFE21E043480078622808D120213F4842
:1003800000F005FE40213D4800F0FFFD14E03D482F
:100390000078632808D12021384800F0F6FD40217C
:1003A000364800F0F4FD07E02021344800F0EDFD70
:1003B0004021324800F0E9FD4CF25030844204D82C
:1003C00001212E4800F0E1FD03E001212B4800F05F
:1003D000DEFD2D48844200D30024641CBDE710B527
:1003E0000121C80200F0D4F94FF4C07000F00DFCF8
:1003F000412000F015FC502000F028FC00F02FFCFC
:1004000000F01BFC10BD00E0401E0028FCD170472E
:1004100007E0002100E0491C4CF250329142FAD32F
:10042000401E0028F5D1704710B5502000F009FC9F
:1004300000F015FC10BD10B540F225510D4800F03C
:1004400096FBB0B140F225510A4800F0BAFB0948CA
:1004500000F024FB00F07F042146064800F01AFB60
:100460000848047000BF8021024800F06AFB0028A1
:10047000F9D010BD0038014000080140000C0140D7
:100480000600002000000020C0270900704700BFC0
:10049000FEE700BFFEE700BFFEE700BFFEE77047D4
:1004A0007047704770470000DB48006840F001006B
:1004B000D949086008464068D8490840D64948608C
:1004C00008460068D6490840D349086008460068D5
:1004D00020F4802008600846406820F4FE00486050
:1004E0004FF41F0088607047CB49096821F48031C0
:1004F000C94A11601146096821F480211160B0F5E4
:10050000803F03D0B0F5802F0ED106E0C2490968C4
:1005100041F48031C04A116007E0BF49096841F4E5
:10052000A021BD4A116000E000BF00BF704710B5B8
:1005300001460022002300204A11012A02D1B64CB4
:10054000236806E0022A02D1B34C236A01E0B24CD0
:10055000636A01F01F02012494401C4201D0012073
:1005600000E0002010BD70B500240025002600BF6B
:100570003120FFF7DCFF0646641CB4F5A06F01D004
:10058000002EF5D03120FFF7D2FF08B1012500E0A1
:100590000025284670BD014600209F4A106820F0C3
:1005A000F80040EAC100106070479E49086070473B
:1005B00002460020984B586820F47C1042EA010360
:1005C0001843954B58607047964908667047014636
:1005D0000020914A506820F00300084350607047A3
:1005E0008D48406800F00C007047014600208A4AA0
:1005F000506820F0F000084350607047014600202A
:10060000854A506820F4E060084350607047014616
:100610000020814A506820F4605040EAC1005060D8
:10062000704729B17C4A527A02437B4B5A7206E0EA
:10063000794A527AC343DBB21A40774B5A727047F9
:1006400079490860704701460020734A506820F4D9
:1006500040400843506070470021744A11706E4A50
:1006600082F82010012802D0042808D103E00121DB
:100670006E4A117004E005216C4A117000E000BF61
:1006800000BF70476A49086070476349096A0143BF
:10069000614A1162704767490860704730B50021B0
:1006A0000022002400235C4D6D6805F00C0121B18F
:1006B000042905D0082923D105E05F4D056022E01B
:1006C0005D4D05601FE0544D6D6805F47012524D8C
:1006D0006D6805F48034022505EB92421CB9574D34
:1006E000554305600BE04C4D6D6815F4003F03D099
:1006F000524D5543056002E04F4D5543056002E001
:100700004D4D056000BF00BF434D6D6805F0F00121
:1007100009094B4D6B5C0568DD4045603E4D6D68D9
:1007200005F4E061090A464D6B5C4568DD40856073
:10073000394D6D6805F46051C90A414D6B5C4568DF
:10074000DD40C560344D6D6805F44041890B3D4D79
:100750006B5CC568B5FBF3F5056130BD29B12E4A68
:10076000526902432C4B5A6104E02B4A526982437E
:10077000294B5A61704729B1274A92690243264B97
:100780009A6104E0244A92698243234B9A6170473C
:1007900029B1214AD26902431F4BDA6104E01E4AA3
:1007A000D26982431C4BDA61704729B11A4AD26878
:1007B0000243194BDA6004E0174AD2688243164BB1
:1007C000DA60704729B1144A12690243124B1A6168
:1007D00004E0114A126982430F4B1A6170471A49AB
:1007E000086070470F49C86470470B49C87170476B
:1007F0000948406A40F080700749486270470146E6
:100800000020054A92680A4201D0012000E0002041
:100810007047014988727047001002400000FFF8DD
:10082000FFFFF6FE00004242D80042422010024084
:10083000800442423C04424200127A0000093D001A
:1008400007000020170000204004424210B5044673
:10085000E348844209D101218803FFF7A6FF002164
:100860004FF48040FFF7A1FF32E0DE48844209D117
:1008700001214804FFF7A6FF00214FF40030FFF7E5
:10088000A1FF25E0D848844209D101218804FFF75F
:1008900099FF00214FF48020FFF794FF18E0D34820
:1008A000844209D10121C804FFF78CFF00214FF4D5
:1008B0000020FFF787FF0BE0CD48844208D10121DB
:1008C0000805FFF77FFF00214FF48010FFF77AFF44
:1008D00010BD2DE9F04786B005460E460024A2461D
:1008E00000BF00BF0027B08900B100BF2F462C8A8F
:1008F0004CF6FF700440F08804432C82AC894EF61D
:10090000F3100440B08831890843718908430443D7
:10091000AC81AC8A4FF6FF400440B0890443AC82FE
:1009200001A8FFF7BBFEAE48874202D1DDF810A058
:1009300001E0DDF80CA00AEBCA0000EB0A103168F8
:100940008900B0FBF1F86420B8FBF0F00401200945
:10095000642101FB1089322000EB0910B0FBF1F09B
:1009600000F00F0004432C8106B0BDE8F0874FF47F
:100970001651016000218180C18001810C214181DB
:1009800000218181704710B502460020108A4FF285
:10099000FF0318400B884C8823438C882343CC8862
:1009A00023431843108210BD0021018041808180C3
:1009B000C180704721B1828942F40052828104E0F3
:1009C00082894DF6FF731A4082817047F0B5034665
:1009D0000024002600250020A1F510676A3F00D101
:1009E00000BF1846C1F3421401F01F06012707FAA1
:1009F00006F5012C01D10C3004E0022C01D110309D
:100A000000E014301AB107682F43076002E007685E
:100A1000AF430760F0BD10B51AB1838A0B438382E0
:100A200004E0838ACC43A4B22340838210BD028AAF
:100A30004FF6F0731A400282028A0A43028270471C
:100A400082894FF2FF731A40828182890A43828130
:100A5000704721B1828942F00202828104E08289DA
:100A60004FF6FD731A4082817047028A4FF6DF739A
:100A70001A400282028A0A430282704721B1028A26
:100A800042F48042028204E0028A4BF6FF731A406D
:100A900002827047C1F3080282807047014688884D
:100AA000C0F308007047818941F0010181817047DE
:100AB000028BD2B20283028B42EA01220283704788
:100AC000028B02F47F420283028B0A430283704747
:100AD00021B1828A42F02002828204E0828A4FF6AB
:100AE000DF731A408282704721B1828A42F010027D
:100AF000828204E0828A4FF6EF731A408282704746
:100B000021B1828A42F00802828204E0828A4FF692
:100B1000F7731A4082827047828A4FF6FB731A403D
:100B20008282828A0A438282704721B1828A42F09D
:100B30000202828204E0828A4FF6FD731A408282AA
:100B4000704702460020B1F5007F00D100BF138836
:100B50000B4201D0012000E00020704701F4007238
:100B6000B2F5007F00D100BFCA430280704770B564
:100B700002460024002300250020A1F510666A3EED
:100B800000D100BFC1F3421501F01F03012606FA90
:100B900003F3012D02D19689334006E0022D02D1E4
:100BA000168A334001E0968A33400C12012606FA79
:100BB00004F41688344013B10CB1012000E0002089
:100BC00070BD10B500220023A1F510646A3C00D16D
:100BD00000BF0A1201249440A3B2DC43048010BD7C
:100BE000003801400044004000480040004C0040F4
:100BF0000050004010B50121C802FFF7E3FD0021BD
:100C00004FF40060FFF7DEFD10BD0021164A1268A8
:100C100022F4C07141EA0001144AC2F8041C704772
:100C20000021114A126822F07F0100F07F0242EA9F
:100C300001010E4AC2F8041C704701200C490860EB
:100C4000704700F07F010B4A1160704740F080014F
:100C5000084A1160704708480068C0B27047002019
:100C60000549086070470000042C00400020004047
:100C7000A4800542002C0040082C00403649014366
:100C8000364A1160704770B5002100230F22C478E6
:100C90004CB3324C246804F4E064C4F5E0644FEAD9
:100CA0001421C1F1040322FA01F2447804FA03F199
:100CB000847804EA020444EA01014FEA0111284C55
:100CC0000678A155047804F01F054FF0010404FADA
:100CD00005F405784FEA65154FF0E02606EB85052B
:100CE000C5F8004109E0047804F01F050124AC4078
:100CF0001C4D0678761145F8264070BD1A4A0A4008
:100D000002431A4B1A60704741B1194A126842EA0D
:100D100000024FF0E023C3F8102D07E0144A1268D8
:100D200022EA00024FF0E023C3F8102D7047042898
:100D300008D14FF0E021096941F004014FF0E022B1
:100D4000116107E04FF0E021096921F004014FF043
:100D5000E0221161704700000000FA050CED00E090
:100D600000E400E080E100E080FFFF1F08ED00E00C
:100D700010ED00E010B50446C248844208D10121BC
:100D80000420FFF712FD00210420FFF70EFD46E0CE
:100D9000BD48844208D101210820FFF706FD00214B
:100DA0000820FFF702FD3AE0B848844208D101214B
:100DB0001020FFF7FAFC00211020FFF7F6FC2EE0D0
:100DC000B348844208D101212020FFF7EEFC002126
:100DD0002020FFF7EAFC22E0AE48844208D101213E
:100DE0004020FFF7E2FC00214020FFF7DEFC16E088
:100DF000A948844208D101218020FFF7D6FC0021B8
:100E00008020FFF7D2FC0AE0A448844207D10121E8
:100E10008015FFF7CAFC0021A015FFF7C6FC10BD26
:100E200010B501210846FFF7C0FC00210120FFF7A3
:100E3000BCFC10BD2DE9F041024600250026002033
:100E400000230024002791F803C00CF00F0591F84F
:100E500003C01CF0100F03D091F802C04CEA050546
:100E6000B1F800C01CF0FF0F31D0146800202BE057
:100E70004FF0010C0CFA00F3B1F800C00CEA0306C5
:100E80009E4220D183004FF00F0C0CFA03F7BC43B5
:100E900005FA03FC4CEA040491F803C0BCF1280FE6
:100EA00006D14FF0010C0CFA00FCC2F814C00AE0A5
:100EB00091F803C0BCF1480F05D14FF0010C0CFABA
:100EC00000FCC2F810C0401C0828D1D31460B1F84F
:100ED00000C0BCF1FF0F34DD546800202EE000F1AB
:100EE000080C4FF0010808FA0CF3B1F800C00CEA46
:100EF00003069E4221D183004FF00F0C0CFA03F73A
:100F0000BC4305FA03FC4CEA040491F803C0BCF1AD
:100F1000280F05D100F1080C08FA0CF8C2F814806B
:100F200091F803C0BCF1480F07D100F1080C4FF055
:100F3000010808FA0CF8C2F81080401C0828CED32B
:100F40005460BDE8F0814FF6FF710180022181708D
:100F50000421C17070470246002093680B4201D003
:100F6000012000E0002070470146886880B2704789
:100F700002460020D3680B4201D0012000E000208F
:100F800070470146C86880B270470161704741618F
:100F900070470AB1016100E041617047C16070476C
:100FA0004FF480320A438261816182618269826981
:100FB0007047024600203A4B18684FF6807318407D
:100FC00040EA02100843364B186070473549C86143
:100FD0007047F0B50A460023002400210025304E5A
:100FE0007168C0F3034583B200F44016B6F5401FA4
:100FF00008D121F070612A4E766826F07066284F7D
:101000007E6012E000F48016B6F5801F06D103263C
:1010100006FA05F4A14341F0706106E0460D360181
:1010200003FA06F6B14341F0706122B1460D360174
:1010300003FA06F631431A4E7160F0BD30B5002256
:101040008B071C0F0F2303FA04F2154B08338C1087
:1010500053F824309343124C08348D1044F8253053
:1010600023468C1053F824308C07240F00FA04F424
:1010700023430B4C08348D1044F8253030BD0A4909
:101080000860704700080140000C0140001001405A
:101090000014014000180140001C014000200140E4
:1010A0000000014000002042DC00204201460020F8
:1010B000FA4A106800F03800084310607047F7499A
:1010C000096821F00801F54A1160114609680143D9
:1010D00011607047F149096821F01001EF4A116071
:1010E00011460968014311607047ED48EB494860BB
:1010F000EC4848607047E948006940F08000E749E3
:10110000086170470420E549C96801F0010101291F
:1011100001D101200EE0E149C96811F0040F01D0AE
:10112000022007E0DD49C96811F0100F01D003204B
:1011300000E0042070470020FF2000E0401E00284F
:10114000FCD1704770B504460425FFF7DBFF054668
:1011500005E0FFF7F0FFFFF7D5FF0546641E012D00
:1011600001D1002CF5D104B90525284670BD70B514
:101170000546042440F6FF70FFF7E4FF0446042C04
:1011800019D1C648006940F00200C4490861084608
:101190004561006940F04000086140F6FF70FFF7CC
:1011A000D1FF0446052C06D0BC48006941F6FD710C
:1011B0000840BA490861204670BD10B5042440F6C5
:1011C000FF70FFF7BFFF0446042C18D1B348006935
:1011D00040F00400B14908610846006940F0400051
:1011E000086140F6FF70FFF7ADFF0446052C06D0FE
:1011F000AA48006941F6FB710840A84908612046E9
:1012000010BD10B5042440F6FF70FFF79BFF0446A5
:10121000042C3CD1A248A1498860A24888600846B5
:10122000006940F0200008610846006940F0400075
:10123000086140F6FF70FFF785FF0446042C1DD1BE
:101240009648006941F6DF710840944908610846F4
:10125000006940F010000861A520934908804FF014
:101260000F00FFF76FFF0446052C10D08B48006974
:1012700041F6EF7108408949086108E0052C06D065
:101280008648006941F6EF710840844908612046AC
:1012900010BD2DE9F04105460E46042400270F201D
:1012A000FFF750FF0446042C26D17C48006940F02B
:1012B00001007A4908612E800F20FFF743FF0446A2
:1012C000042C10D1AF1C300C38800F20FFF73AFFF0
:1012D0000446052C10D07148006941F6FE710840A3
:1012E0006E49086108E0052C06D06C48006941F69B
:1012F000FE710840694908612046BDE8F08170B57B
:1013000005460E4604240F20FFF71CFF0446042C5C
:1013100013D16248006940F00100604908612E80E5
:101320000F20FFF70FFF0446052C06D05B4800692D
:1013300041F6FE71084059490861204670BD70B5FC
:1013400005460E4604240F20FFF7FCFE0446042C3D
:1013500017D153485149886052488860084600694F
:1013600040F0100008612E800F20FFF7EBFE0446CE
:10137000052C06D04948006941F6EF7108404749FD
:101380000861204670BD2DE9F04704464FF6FF7610
:101390003746B046B1460425E443E6B2C4F3072716
:1013A000C4F307484FEA14690F20FFF7CBFE054648
:1013B000042D3ED13A48394988603A488860084649
:1013C000006940F010000861FF2E06D03748068003
:1013D0004FF00F00FFF7B6FE0546042D08D1FF2F92
:1013E00006D0334807804FF00F00FFF7ABFE0546ED
:1013F000042D09D1B8F1FF0F06D02E48A0F80C88B3
:101400000F20FFF79FFE0546042D09D1B9F1FF0F0C
:1014100006D02848A0F80E980F20FFF793FE054647
:10142000052D06D01D48006941F6EF7108401B49A3
:1014300008612846BDE8F08770B50546042440F6EB
:10144000FF70FFF77FFE0446042C50D11448134967
:101450008860144888600846006940F020000861F0
:101460000846006940F04000086140F6FF70FFF751
:1014700069FE0446042C31D10848006941F6DF7149
:101480000840064908610846006940F010000861FC
:1014900095B100200449088011E0000000200240BE
:1014A00023016745AB89EFCD00F8FF1F08F8FF1F48
:1014B0000AF8FF1F00F0FF1FA5204549088040F6ED
:1014C000FF70FFF73FFE0446052C10D0414800692D
:1014D00041F6EF7108403F49086108E0052C06D04D
:1014E0003C48006941F6DF7108403A4908612046EE
:1014F00070BD2DE9F04105460E46174604243648D6
:1015000034498860354888600F20FFF71BFE044689
:10151000042C19D12F48006940F010002D490861B2
:1015200047F0F800304328432D4908804FF00F0062
:10153000FFF708FE0446052C06D02648006941F650
:10154000EF710840234908612046BDE8F081214839
:10155000C069800870471F48006A704700201D4915
:10156000C96911F0020F01D0012000E0002070478E
:1015700000201849096811F0200F01D0012000E077
:101580000020704729B1134A12690243114B1A61B6
:1015900004E0104A126982430E4B1A6170470146FB
:1015A0000020012908D10B4AD26912F0010F01D0A5
:1015B000012008E0002006E0064AD2680A4201D075
:1015C000012000E0002070470249C8607047000019
:1015D00000F8FF1F0020024023016745AB89EFCDD3
:1015E00002F8FF1F70470B4880470B4981F30888BA
:1015F0000A480047FEE7FEE7FEE7FEE7FEE7FEE7F4
:10160000FEE7FEE7FEE7FEE705480649064A074B08
:1016100070470000E5150008800600203101000831
:101620008000002080060020800200208002002030
:10163000704770477047754600F028F8AE460500C1
:101640006946534620F00700854618B020B5FFF7DD
:10165000DBFFBDE820404FF000064FF000074FF0E1
:1016600000084FF0000B21F00701AC46ACE8C009C0
:10167000ACE8C009ACE8C009ACE8C0098D467047C9
:101680000446AFF300802046FEF79BFD00487047FC
:101690001C00002001487047704700BF2000002058
:1016A00001491820ABBEFEE726000200704710B5C6
:1016B000FFF7F0FF4FF00001016010BDDC160008DD
:1016C000000000201C0000006C010008F816000853
:1016D0001C000020640600008801000800000000D3
:1016E00000000000000000010203040102030406E0
:0816F0000708090204060800C6
:0400000508000131BD
:00000001FF
